:020000040800F2
:100000000000082429170008151600081716000814
:10001000191600081B1600081D1600080000000035
:1000200000000000000000000000000031B60008E1
:100030001F16000800000000C1B6000879AE0008D5
:100040007917000879170008791700087917000850
:100050007917000879170008791700087917000840
:100060007917000879170008791700087917000830
:100070007917000879170008791700087917000820
:100080007917000879170008791700087917000810
:100090007917000879170008791700087917000800
:1000A00079170008791700087917000879170008F0
:1000B00079170008791700087917000879170008E0
:1000C00079170008791700087917000879170008D0
:1000D00079170008791700087917000879170008C0
:1000E0007917000879170008000000007917000848
:1000F00079170008791700087917000879170008A0
:10010000791700087917000879170008791700088F
:1001100079170008791700082116000879170008D8
:10012000791700087917000879170008791700086F
:10013000791700087917000879170008791700085F
:10014000791700087917000800000000000000007F
:10015000791700087917000879170008791700083F
:10016000791700087917000879170008791700082F
:1001700079170008791700087917000800000000B7
:10018000791700087917000879170008791700080F
:1001900079170008791700087917000879170008FF
:1001A0002D1600087917000839160008791700087D
:1001B00079170008791700087917000879170008DF
:1001C00079170008791700087917000879170008CF
:1001D00079170008791700087917000879170008BF
:1001E00079170008791700087917000879170008AF
:1001F000791700087917000879170008791700089F
:10020000791700087917000879170008791700088E
:10021000791700087917000879170008791700087E
:100220007917000845160008511600086D160008D9
:10023000791700087917000879170008791700085E
:10024000791700087917000879170008791700084E
:10025000791700087917000879170008791700083E
:10026000791700087917000879170008791700082E
:10027000791700087917000879170008791700081E
:1002800079170008791700087917000800000000A6
:08029000791700087917000836
:1002A00010B5054C237833B9044B13B10448AFF3B0
:1002B00000800123237010BD4003002400000000D3
:1002C0003C31020808B5034B1BB103490348AFF3A7
:1002D000008008BD00000000440300243C310208F7
:1002E00001F0FF01102A2BDB10F0070F08D010F8E7
:1002F000013B013A8B422DD010F0070F42B3F6D1EB
:10030000F0B441EA012141EA014122F007047FF003
:1003100000070023F0E80256083C85EA010586EA5A
:10032000010685FA47F5A3FA87F586FA47F6A5FA96
:1003300087F68EB9EED1F0BC01F0FF0102F00702A2
:1003400032B110F8013B013A83EA010313B1F8D14D
:100350000020704701387047002D06BF354603382E
:10036000073815F0010F07D1013015F4807F02BF67
:10037000013015F4C03F0130F0BC0138704700BFB8
:1003800081F0004102E000BF83F0004330B54FEA46
:1003900041044FEA430594EA050F08BF90EA020FB3
:1003A0001FBF54EA000C55EA020C7FEA645C7FEA46
:1003B000655C00F0E2804FEA5454D4EB5555B8BF69
:1003C0006D420CDD2C4480EA020281EA030382EADA
:1003D000000083EA010180EA020281EA0303362D6C
:1003E00088BF30BD11F0004F4FEA01314FF4801C3F
:1003F0004CEA113102D0404261EB410113F0004F51
:100400004FEA03334CEA133302D0524263EB430307
:1004100094EA050F00F0A780A4F10104D5F1200EA5
:100420000DDB02FA0EFC22FA05F2801841F1000100
:1004300003FA0EF2801843FA05F359410EE0A5F1D4
:1004400020050EF1200E012A03FA0EFC28BF4CF005
:10045000020C43FA05F3C01851EBE37101F00045BB
:1004600007D54FF0000EDCF1000C7EEB00006EEBC8
:100470000101B1F5801F1BD3B1F5001F0CD3490852
:100480005FEA30004FEA3C0C04F101044FEA4452A9
:1004900012F5800F80F09A80BCF1004F08BF5FEA30
:1004A000500C50F1000041EB045141EA050130BD10
:1004B0005FEA4C0C404141EB0101013C28BFB1F522
:1004C000801FE9D291F0000F04BF01460020B1FA6D
:1004D00081F308BF2033A3F10B03B3F120020CDA40
:1004E0000C3208DD02F1140CC2F10C0201FA0CF01E
:1004F00021FA02F10CE002F11402D8BFC2F1200C83
:1005000001FA02F120FA0CFCDCBF41EA0C01904038
:10051000E41AA2BF01EB0451294330BD6FEA040481
:100520001F3C1CDA0C340EDC04F11404C4F120026C
:1005300020FA04F001FA02F340EA030021FA04F37E
:1005400045EA030130BDC4F10C04C4F1200220FAD5
:1005500002F001FA04F340EA0300294630BD21FA13
:1005600004F0294630BD94F0000F83F4801306BFD9
:1005700081F480110134013D4EE77FEA645C18BFCD
:100580007FEA655C29D094EA050F08BF90EA020F64
:1005900005D054EA000C04BF1946104630BD91EA5C
:1005A000030F1EBF0021002030BD5FEA545C05D15F
:1005B0004000494128BF41F0004130BD14F580049E
:1005C0003CBF01F5801130BD01F0004545F0FE4112
:1005D00041F470014FF0000030BD7FEA645C1ABF47
:1005E000194610467FEA655C1CBF0B46024650EA7E
:1005F000013406BF52EA033591EA030F41F40021AA
:1006000030BD00BF90F0000F04BF0021704730B52F
:100610004FF4806404F132044FF000054FF0000104
:1006200050E700BF90F0000F04BF0021704730B5C5
:100630004FF4806404F1320410F0004548BF40429A
:100640004FF000013EE700BF42004FEAE2014FEAEF
:1006500031014FEA02701FBF12F07F4393F07F4FCA
:1006600081F06051704732F07F4208BF704793F0CD
:100670007F4F04BF41F40021704730B54FF46074E0
:1006800001F0004521F000411CE700BF50EA0102E3
:1006900008BF704730B54FF000050AE050EA01028C
:1006A00008BF704730B511F0004502D5404261EBFC
:1006B00041014FF4806404F132045FEA915C3FF43D
:1006C000D8AE4FF003025FEADC0C18BF03325FEADA
:1006D000DC0C18BF033202EBDC02C2F1200300FA8B
:1006E00003FC20FA02F001FA03FE40EA0E0021FAB0
:1006F00002F11444BDE600BF014900200CF028B906
:10070000AD1F000870B59CB04C22002109A821F053
:100710007FFF2022002101A821F07AFF042008F0A9
:10072000BBFA00230093264BDA6A22F00102DA6258
:10073000DB6A03F001030093224B9A6942F44042C2
:100740009A619A6902F440420092009A9A6991046F
:10075000FCD54FF480330326402502240C2209A83F
:100760001694CDE909630123CDE90C350D23CDE9BC
:1007700017340023CDE91244CDE91445CDE91923FE
:100780001B9308F087FD08B172B6FEE73F232146B0
:10079000039001A80695CDE901360823CDE904357B
:1007A0004FF48063CDE9073509F010F9014608B12F
:1007B00072B6FEE74FF4802209F018F81CB070BD45
:1007C00000040058004802582DE9F04FBDB0102237
:1007D000002101242FA8042521F01AFF05F02CFC8C
:1007E0004FF01041BD4B2FA8ADF8BC403294CDE97D
:1007F000301305F03FFC1A232FA88DF8BD408DF86B
:10080000C43005F037FC02232FA88DF8CA408DF8BC
:10081000BD304FF05043309318238DF8C43005F0AD
:1008200029FC03232FA88DF8BD304FF010533093CF
:1008300012238DF8C43000238DF8C83005F01AFC5F
:100840004FF080532FA88DF8BD50309311238DF8B1
:10085000C43005F00FFC05232FA88DF8C8408DF893
:10086000BD309F4B30930E238DF8C43005F002FC51
:10087000284605F0EFFB9B4B5A6912F4003211D168
:10088000BFF34F8FBFF36F8FC3F85022BFF34F8F6B
:10089000BFF36F8F5A6942F400325A61BFF34F8F32
:1008A000BFF36F8F8F4A536913F4803323D1C2F89B
:1008B0008430BFF34F8FD2F8803043F6E074C3F337
:1008C000C900C3F34E335B0103EA0406014646EA5E
:1008D00081750139C2F86052F9D2203B13F1200F23
:1008E000F2D1BFF34F8F536943F480335361BFF3A9
:1008F0004F8FBFF36F8F4FF6FF737B4D2C6814F44F
:10090000004400F0EB82013BF8D272B6FEE772B60B
:10091000FEE77648764A83610462C0E90029C0E9AF
:100920000253C0E9045308F0D5FA08B172B6FEE7E5
:1009300040F203132FA98DF8BE40ADF8BC3004F08F
:100940005BFE08B172B6FEE704F002FE034608B192
:1009500072B6FEE767484FF44032DFF8A4C1C0E941
:100960000253C0E900C205F012FC044608B172B699
:10097000FEE702464146604806F0ECFA304605F0D4
:10098000DFFA41462A465C4806F0E4FA0A2005F000
:10099000D7FA2422214619A821F03AFE182221462E
:1009A00013A821F035FE342221462FA821F030FE75
:1009B000DFF8488121462C2222A821F029FE4FF0A1
:1009C000A04310A940461295C8E90034C8E9027551
:1009D000CDE9106505F028FD08B172B6FEE7CDE956
:1009E0001950CDE91B00CDE91D00CDE91F00219074
:1009F00019A9404605F084FF08B172B6FEE70A2344
:100A00001224189013A91396CDE914430D23CDE9B0
:100A10001630404605F037FF08B172B6FEE70421F4
:100A2000364805F01FFF08B172B6FEE742F21071BA
:100A3000324806F0EEF8014608B172B6FEE72F48DC
:100A400005F08FFC08B172B6FEE74FF400734FF467
:100A500080794FF4806A4FF4805B4FF480424FF40A
:100A600000314FF400204FF00208CDE92F934FF4EE
:100A70000063CDF8EC80CDE931A34FF40053CDE90C
:100A800033B34FF48033CDE935234FF48023CDE9E0
:100A900037134FF080732FA9CDE93903174805F0BC
:100AA000ADFE08B172B6FEE705234FF4C877012604
:100AB00022A9229029902C96CDE923371023CDE945
:100AC00025308023CDE92700CDE92A300B4805F0F9
:100AD00023FE0146B0B172B6FEE700BF1B00000363
:100AE0000000041000ED00E000440258C803002498
:100AF000005000520806002400180258EC0500249B
:100B0000001000525B4805F0F6FD044608B172B6CD
:100B1000FEE73422014622A8574D21F079FDDFF887
:100B200098C14FF000434FF4C97EC5F82080284695
:100B3000AC8685F83640C5E900C34FF08043C5E96F
:100B400002344FF4F173C5E90648C5E909E340F200
:100B5000931840F2E313C5E90444C5E90B8307F099
:100B60006BFD024608B172B6FEE7FF2124904FF4F8
:100B7000F073ADF8B8208DF8BA202D93CDE9271089
:100B8000CDE9220707214FF4C060CDE929014FF0DC
:100B900050412846CDE92B1722A9CDE9253607F08B
:100BA00017FE044608B172B6FEE72A683148936919
:100BB00023F00103936105F009FF3049304B3148C0
:100BC000CB60314B0C804B60304B8B6004F0B8FA3B
:100BD000324621462B4803F023FF282315222146C5
:100BE0002448009405F025FF2FA922483994CDE927
:100BF0002F44CDE93144CDE93344CDE93544CDE945
:100C0000374405F0FBFD22464FF44871284607F0B3
:100C10000DFE2A681E489369848043F001039361A6
:100C20001C4B06620360C0E9054405F04FFA08B1A9
:100C300072B6FEE71848194B036006F0E5FE08B1EE
:100C400072B6FEE700F09AFD00F097FD0AF022F977
:100C5000134A002113480AF049F9134B134A0021A3
:100C6000186013480AF042F9124B18600AF024F990
:100C7000FEE700BFEC050024140400245C030024FC
:100C8000215500086C030024AD1C0008E51C000879
:100C900070060024004C02589405002400300052D5
:100CA000D43102088B17000890030024B0310208E9
:100CB000493800088C03002400100050142600213D
:100CC0002FA8012532464FF0000A21F0A1FCD4F8EC
:100CD000E030002241F2080143F4807390484FF065
:100CE00003090227C4F8E0304FF4807BD4F8E030E9
:100CF0004FF0080803F480730693069BD4F8E030A5
:100D000043F00203C4F8E030D4F8E03003F002030B
:100D10000793079BD4F8E03043F04003C4F8E03079
:100D2000D4F8E03003F040030893089BD4F8E03097
:100D300043F01003C4F8E030D4F8E03003F01003BF
:100D40000993099BD4F8E03043F08003C4F8E03005
:100D5000D4F8E03003F080030A930A9BD4F8E03023
:100D600043F00403C4F8E030D4F8E03003F00403A7
:100D70000B930B9BD4F8E03043F40073C4F8E030DD
:100D8000D4F8E03003F400730C930C9BD4F8E030FB
:100D900043F00803C4F8E030D4F8E03003F008036F
:100DA0000D930D9BD4F8E03043F00103C4F8E0301C
:100DB000D4F8E03003F001030E930E9BD4F8E0303A
:100DC00043F02003C4F8E030D4F8E03003F020030F
:100DD0000F930F9B06F0BEF800220821514806F041
:100DE000B9F800224FF480714F4806F0B3F841F291
:100DF00008032FA94A48CDE92F35CDE931A905F0DF
:100E00001FFF2FA94948CDF8CCA0CDE931AACDE9E3
:100E10002FB705F015FF2FA94248CDE92F85CDE961
:100E2000315905F00DFF2FA93F48CDE931A9CDE992
:100E30002FB505F005FFD4F8D430524605212B43D9
:100E40007A20C4F8D430D4F8D4302B400593059BD5
:100E500005F0A0F87A2005F0CFF8D4F8D830344A5D
:100E60004FF400612B433348C4F8D830D4F8D8305D
:100E700040242B400493049B136823F00103136068
:100E800004222D4BC0F81CA0C0F828A085602F9725
:100E9000C0E900352023C0E903234FF4C073C0E943
:100EA00005434FF48053C0E9081307232FA9CDE968
:100EB0003032CDE93239CDE9347709F01BFD824675
:100EC00000287FF424AD04F051FD504604F09CFD51
:100ED000034600283FF41DAD72B6FEE704F0F0FFB4
:100EE000FFF710FCD5F8E030204643F00073C5F85A
:100EF000E030D5F8E03003F000730393039B06F075
:100F000037F82146204606F041F80C4C4FF6FF73A7
:100F1000226812043FF5D2AE013BF9D272B6FEE769
:100F20000024025800180258001402580000025809
:100F300000400052940300244041005200440258F3
:100F40000268034B9A4201D104F0E8BF704700BF2A
:100F50000010004072B6FEE70A4B82B00F216FF01E
:100F60000100D3F8F42042F00202C3F8F42000227A
:100F7000D3F8F43003F002030193019B02B005F0B3
:100F800009B800BF00440258026882B0094B9A4277
:100F90000DD1A3F50063D3F8E02042F40022C3F89A
:100FA000E020D3F8E03003F400230193019B02B06A
:100FB000704700BF004C02580F4B07B502689A42B9
:100FC00017D10E4B07215A20D3F8D42042F010023B
:100FD000C3F8D4200022D3F8D43003F010030193D7
:100FE000019B04F0D7FF5A2003B05DF804EB05F035
:100FF00003B803B05DF804FB00100052004402582F
:1010000010B5BAB004461422002103A821F000FB59
:10101000C822002108A821F0FBFA2368B3F1A04FF1
:1010200038D14FF08062002308A8CDE9082308F0EA
:1010300053FF08B1FFF78EFF174B002403A9174891
:10104000D3F8E42042F01002C3F8E420D3F8E420FF
:1010500002F010020192019AD3F8E02042F40072EB
:10106000C3F8E0200422D3F8E03003F400730293C5
:10107000029B0223CDE903230D23CDE90544079309
:1010800005F0DEFD7B202246072104F083FF7B2054
:1010900004F0B2FF3AB010BD0044025800240258D8
:1010A00037B53C4B054602689A4270D13A4B022153
:1010B0003A4C4FF0007ED3F8D420DFF8ECC0204645
:1010C00042F02002C3F8D4208022D3F8D43003F0B9
:1010D00020030193019B1123C4E900C30023C4E949
:1010E0000232C4E9073220222361C4E90513C4E9AE
:1010F00009E24FF4A0414FF40032C4E90D33C4E9D2
:101100000B1207F0FEFB08B1FFF724FF0022234873
:10111000114607F084FC08B1FFF71CFF2C63132372
:101120001F4A082125644FF4A0401E4CC4E9002347
:101130000023C022C4E9023220222362C4E906123D
:101140004FF00071C4E909124FF42032C4E90B02D8
:101150002046C4E90433C4E90D3307F0D2FB08B1DB
:10116000FFF7F8FE00220F48114607F058FC08B1BF
:10117000FFF7F0FE6C63002205217920256404F05E
:1011800009FF792003B0BDE8304004F035BF03B05B
:1011900030BD00BF00300052004402582805002432
:1011A000C0010052BC0400240002005210B5B4B0CB
:1011B0000446C822002102A821F02AFA2268194B0D
:1011C0009A422DD14FF0005200234FF4406102A803
:1011D000CDE90223C0232022CDE90C230223CDE94F
:1011E0000E3310934FF40073CDE9111308F074FE21
:1011F00008B1FFF7AFFE0C4B58200721D3F8E420CD
:1012000042F00802C3F8E4200022D3F8E43003F0EF
:1012100008030193019B04F0BDFE582004F0ECFE8E
:1012200034B010BD0010005000440258F0B5BFB0FB
:1012300004461422002107A821F0EAF9C82200215F
:101240000CA821F0E5F92268534B9A4240F0A180A6
:101250004FF0007200230CA8CDE90C2308F03CFEEF
:1012600008B1FFF777FE4D4B022500240926D3F87D
:10127000D42007A94A480A2742F48042C3F8D42060
:10128000D3F8D42002F480420192019AD3F8E020EE
:1012900042F04002C3F8E020D3F8E02002F0400220
:1012A0000292029AD3F8E02042F02002C3F8E02034
:1012B000D3F8E02002F020020392039AD3F8E02052
:1012C00042F08002C3F8E020D3F8E02002F0800270
:1012D0000492049AD3F8E02042F00202C3F8E0201E
:1012E000D3F8E02002F002020592059AD3F8E0203C
:1012F00042F00802C3F8E020D3F8E03003F008031E
:101300000693069B4FF48443CDE90735CDE90944A4
:101310000B9605F095FC402307A921480B97CDE9D2
:101320000735CDE9094405F08BFCC02307A91D480A
:101330000B96CDE90735CDE9094405F081FC4FF462
:10134000007307A917480B97CDE90735CDE9094484
:1013500005F076FC0C2307A913480B96CDE9073559
:10136000CDE9094405F06CFC042307A90F480B964E
:10137000CDE90735CDE9094405F062FC4FF400637F
:1013800007A90B480B96CDE90735CDE9094405F0CF
:1013900057FC3FB0F0BD00BF00500052004402585F
:1013A0000018025800140258001C02580004025889
:1013B000000C0258F0B5B9B00021142201A821F0A8
:1013C00027F93F4B1968002977D1012208A81A6034
:1013D000C02221F01DF94FF08072002306A8CDE94C
:1013E000062308F079FD08B1FFF7B4FD354B02275D
:1013F00000260325D3F8D4200C2401A9324842F456
:101400008052C3F8D420D3F8D430059403F4805329
:101410000093009B40F2FF63CDE90365CDE90137FE
:1014200005F00EFC602301A928480594CDE9013799
:10143000CDE9036505F004FC4FF6837301A9244848
:101440000594CDE90137CDE9036505F0F9FB4FF4CB
:101450007F4301A91F480594CDE90137CDE9036514
:1014600005F0EEFB48F2331301A91B480594CDE9C2
:101470000137CDE9036505F0E3FB4CF2037301A9E5
:1014800016480594CDE90137CDE9036505F0D8FB91
:101490004FF63F0301A912480594CDE90137CDE984
:1014A000036505F0CDFB012301A90E480594CDE9A4
:1014B0000137CDE9036505F0C3FB39B0F0BD00BFCE
:1014C00098060024004402580020025800040258E4
:1014D00000100258001C025800180258000C025854
:1014E00000140258000802581A4B1A6810B582BB43
:1014F000194A012440F2FF6118481C60D2F8D43028
:1015000023F48053C2F8D43005F082FC60211448E3
:1015100005F07EFC4FF68371124805F079FC4FF41C
:101520007F41114805F074FC48F233110F4805F073
:101530006FFC4CF203710E4805F06AFC4FF63F0158
:101540000C4805F065FC21460B48BDE8104005F04D
:101550005FBC10BD940600240044025800200258CD
:101560000004025800100258001C025800180258CB
:10157000000C025800140258000802580F2810B539
:1015800004468AB002D901200AB010BD01460022EB
:10159000362004F0FFFC362004F02EFD184B69467F
:1015A00002A81C60174BD3F8E82042F01002C3F8E1
:1015B000E820D3F8E83003F010030193019B08F012
:1015C00071FB079BC3B908F049FB0F4C0F4B23601D
:1015D00040F2E733E3600E4BB0FBF3F00138002339
:1015E000606020462361A36009F07AFB0028CAD11D
:1015F000204609F027FAC7E708F030FB4000E4E78F
:1016000074000024004402589C060024001000408E
:1016100040420F00FEE7FEE7FEE7FEE7FEE7704709
:10162000014809F051BA00BF9C060024014807F0A8
:1016300072B800BF14040024014804F0E7BD00BFE5
:1016400008060024014806F017BF00BF94050024D7
:10165000044808B507F068FA0348BDE8084007F0F9
:1016600063BA00BFBC04002428050024014804F02C
:10167000D0BF00BFEC0500240120704708B521F061
:101680007BF8162303604FF0FF3008BD08B521F04A
:1016900073F816230360FEE770B50D4614460E4638
:1016A000731B9C4201DC204670BDAFF3008006F83E
:1016B000010BF5E770B50D4614460E46731B9C42B0
:1016C00001DC204670BD16F8010BAFF30080F5E792
:1016D0004FF0FF3070474FF4005300204B607047CD
:1016E00001207047002070470B4A0346116810B56F
:1016F00009B90A491160106809490A4C0344091BD9
:101700008B4206D921F038F80C2303604FF0FF30EC
:1017100010BD1360FCE700BFE8060024985F0224B8
:101720000000082400100000DFF834D004F058FB5B
:101730000C480D490D4A002302E0D458C45004332C
:10174000C4188C42F9D30A4A0A4C002301E0136002
:101750000432A242FBD321F015F8FFF735F87047A9
:1017600000000824000000243C010024386702081F
:1017700040030024945F0224FEE7704708B501F09F
:10178000D9FCBDE8084001F05DBC01F0D5BC406863
:10179000704741607047521A02EB5302B2FBF3F0FC
:1017A00070470000024BC0681B685B6A5843704773
:1017B000EC0600247047000037B51E4A4FF0804108
:1017C00005464FF0FF30D2F8E83043F00103C2F88D
:1017D000E830D2F8E83003F001030193019B164B87
:1017E00019600021D860196199605960012159611F
:1017F000D369102203F0700392FAA2F2B2FA82F2D5
:10180000D3400E4AD35C83B908F006FA044608F0C8
:101810003BF8B0FBF4F0E860074809F061FA0648CD
:1018200003B0BDE8304009F0D3B808F017FA44001F
:10183000EDE700BF00440258EC060024D055020832
:1018400010B50446102120F0D0F8204610BD38B560
:10185000036804461B6931B18568984763685B1B60
:101860000344636038BD9847A060FBE77047000001
:10187000F8B50A4B0F4616461D7815B900252846BF
:10188000F8BD074C0020214604F04EFA2368002BD7
:10189000F4D063683B60A3683360F0E74807002436
:1018A0003807002410B50446042120F09EF8204695
:1018B00010BD000008B50E4B4FF4487200201968A7
:1018C0004FF4F073C1E900230C23C1E9023004F0A6
:1018D0009BF9084B10B901221A7008BD1B78002B28
:1018E000FBD1054B2E21054A054820F0F5FB00BF32
:1018F000440700244807002420320208333202083B
:101900005D32020810B1032809D07047084B082146
:1019100008481A68B2FA82F2520905F01BBB044B60
:101920004FF480710448DA68B2FA82F25209F4E79F
:101930004C070024002402580014025810B1032858
:1019400009D07047084B082108481A68003A18BFA8
:10195000012205F0FFBA044B4FF480710448DA68A5
:10196000003A18BF0122F4E74C0700240024025873
:101970000014025810B1032804D07047082103480E
:1019800005F0EDBA4FF480710148F9E700240258E0
:101990000014025808B530B1032809D00020431EB6
:1019A0005842584108BD0821034805F0CDFAF6E732
:1019B0004FF480710148F8E70024025800140258DF
:1019C00070B5084D00240126E0B2FFF7E3FF18B11F
:1019D0002B68012B18BF2E6001340435052CF3D180
:1019E00070BD00BF4C070024012380F8781080F8F8
:1019F000793070470020704741640039024B18BFAE
:101A000001211970704700BF7352022400207047F3
:101A1000836B0BB10846184770474FF6FF7070474D
:101A2000406803689B691847014B1868704700BFFE
:101A300070070024704701F07CBC01F00BBC01F082
:101A4000DDBD01F0CFBD000010B5044601F092FDF0
:101A500094F84B3013B1024B01221A7010BD00BF35
:101A60000C00002401F0FEBB10B504460CF0F8FD9C
:101A700023682046D3F8AC30BDE81040184710B5B5
:101A800004460CF075F960680368BDE810401B69F6
:101A900018470CF043B810B504467C211FF0A5FF91
:101AA000204610BD024B00221A700CF073B800BF24
:101AB0000C00002438B50446064D01F0FBFB002362
:101AC000284684F84A30FFF777FE0123256184F821
:101AD000703038BD600700240368044607B5D3F8AA
:101AE00080309847236820469B6F984700F05CFF42
:101AF000236820461B6F984700212923152205489B
:101B0000009104F096FF00F04FFF236820461B6F02
:101B10009847F8E7EC05002490F834100D4B10B509
:101B200090F878401A788C4209D03AB90A490B4AA1
:101B300008881488108001220C801A7010BD002AB9
:101B4000FCD0064A0449148808880C8010800022C2
:101B5000F3E700BF6C5202246A5202246852022446
:101B600008B5094B1B888B4203D8084B1B8893424E
:101B700005D9074B9E21074A074820F0ADFA074BCD
:101B80001980074B1A8008BD685202246A52022449
:101B9000C83202082B3302086E3302086E52022448
:101BA00070520224034690F87A0018B1586803680E
:101BB0001B6818477047000070B50D4619460B4B5F
:101BC0001D6035B90A4B40F2D2210A4A0A4820F07A
:101BD00083FAC0E90F52003A084B18BF01221A706D
:101BE0000368BDE87040D3F88C30184770070024B4
:101BF000C1330208F93302086E330208725202241C
:101C0000C0E90112C3604FF480720023C0E91223BF
:101C10001D4A038580F82A30C362038680F8583055
:101C2000436680F87030436770B5C0E91A23BDF889
:101C30001050164ABDF814602035C0E90433C0E9DD
:101C40000633C0E90833C0E90E33C0E91033C0E9F8
:101C50001433C0E917338267ADB20D4AB542106044
:101C60000C4A15800C4A158028BF00250B4A38BF46
:101C7000012516800A4A80F834501680094A1370EC
:101C8000094B036070BD00BF0100000100000101AD
:101C900074520224685202246E5202246A520224B0
:101CA000705202246C52022450340208012B13B5E6
:101CB0000ED8D35C152200930B460146084804F069
:101CC000B8FE18B16FF0070002B010BD0020FBE7AE
:101CD000CDE9001201463922014804F0BBFEF0E7CD
:101CE000EC0500241FB5CDE9011206210091014643
:101CF000054804F00FFF002814BF6FF00700002014
:101D000005B05DF804FB00BFEC0500241FB54FF2E1
:101D100001430B4C39220021ADF80C3003AB2046B7
:101D2000019344230093022304F094FE0021352301
:101D300015222046009104F07CFE04B010BD00BFC7
:101D4000EC05002408B5FFF7E1FF0C4B02221B68ED
:101D5000C3F810240122C3F81024D3F8082442F059
:101D60000102C3F80824D3F8082442F00202C3F8A1
:101D700008240322024B5A6308BD00BFEC0500246F
:101D800000100050074B07B5197839B901220648F1
:101D90001A7029231522009104F04BFE03B05DF860
:101DA00004FB00BF5C070024EC050024064B07B5CC
:101DB00001932A233922002100930423034804F0CD
:101DC00049FE03B05DF804FB08000024EC05002484
:101DD000064B07B501932A233922002100930423DF
:101DE000034804F037FE03B05DF804FB0400002450
:101DF000EC05002438B5144D04460020FFF782FDA1
:101E00002A6892F86A30013382F86A3000F0C0FD27
:101E10000E4B2A6819781B7882F84A1073B10C4D62
:101E20002B7803F0FF024BB90A4B1A60FFF7BEFF95
:101E3000204604F0EEFD01232B7038BD0020BDE8E4
:101E40003840FFF77BBD00BF745202240C00002411
:101E500078070024740700242DE9F043484E85B02C
:101E600004463378002B00F08880DFF83891DFF8E3
:101E70003881D9F80050434F002D3ED10120424E09
:101E800004F05EF823680095D3F80424386822F043
:101E9000080200F59660C3F80424D3F8042402F085
:101EA00008020092009AD8F80020C2F8AC00374827
:101EB0000661374E46613748C2F888003648C2F896
:101EC000B000516A41F0010151620195D3F8042438
:101ED00042F00802C3F80424D3F8043403F00803E2
:101EE0000193019BFFF774FF01232046C9F80030DE
:101EF00005B0BDE8F04304F08CBD036800253868E8
:101F00000295D3F80424254C22F00802C3F80424D7
:101F1000D3F8042402F008020292029AD8F80020B2
:101F2000C2F8AC001948046104F101144461194875
:101F3000C2F888001848C2F8B0002846516A41F03B
:101F4000010151620395D3F8042442F00802C3F85A
:101F50000424D3F8043403F008030393039BFFF72E
:101F6000EDFCFFF70FFF0E4B3570186828B10368C2
:101F70001B6A05B0BDE8F043184705B0BDE8F08323
:101F80007807002470070024E201B201001000501D
:101F9000E301920103009201B304C009E20192013E
:101FA000745202247407002414040024014608B566
:101FB000034B186801B101210CF06CFB012008BD36
:101FC00074520224034B00225A609A60024A1A603B
:101FD000704700BF60070024003202084069704764
:101FE00090F840007047036B23B9C06A003818BFEF
:101FF00001207047012070478068704770470430A7
:1020000010B50C460FC884E80F0010BD70470000E3
:1020100008B5034A4FF4E271024B034820F05CF824
:1020200020350208EB5102087B35020810B5044642
:1020300048211FF0DAFC204610BD000000220E4BA4
:1020400010B5114604460360C26380F84020C0E921
:102050000522C0E90722C0E90922C0E90B22C0E934
:102060000D22C0E90322C0E90122012008F0FCFF93
:10207000024B1860204610BDB037020898070024B4
:1020800010B40C4611461A46036B3BB1C36B406B50
:10209000E41A20445DF8044B20F0C2BAC06AF8E7A5
:1020A000036B10B573B1C36B426BC91A5318525C02
:1020B00098785C78000440EA04201043DB7840EA1A
:1020C000036010BDC26A5318525C597898780004B6
:1020D00040EA0120F1E7036B43B1C36BC91A436BBC
:1020E0005A18585C527840EA02207047C36A5A185E
:1020F000585C537840EA03207047000070B50446EE
:10210000006B0D461646D8B1A36B934208D2092343
:102110000D4A9E210D4884F840300D4B1FF0DCFF26
:102120000368DB689847206B3246616B03681B6964
:10213000984710B90D2384F84030606BE56370BD9B
:10214000E06A0844FBE700BFE93502087B35020876
:10215000D63502082DE9F843436904462BB9224BD2
:10216000E421224A22481FF0B7FF08228169FFF7C5
:10217000C5FFA16943F2300646F2643704312046B8
:10218000FFF78EFFA3691844A36A00F108029A4280
:1021900006D3012300206361236AA361BDE8F883AD
:1021A000636900F1090108222046013321F0010191
:1021B0006361A161FFF7A2FFD4F818902046494659
:1021C000FFF789FF09F1020180462046FFF783FFF0
:1021D00009F1040105462046FFF762FFB045D1D161
:1021E000BD42CFD10120D9E72B3602087436020850
:1021F0007B3502080129036838BF0121DB6A70B50D
:102200000D4604469847A84204D223682046DB6A5C
:10221000984705466B1EE6691022204606EB03161A
:1022200006F10801FFF76AFF06F110012046FFF7EB
:1022300037FF236A043B0344C4E9055370BD000023
:10224000002148222DE9F0410446816180F84010C8
:10225000FFF754FFA6690423634A31462046FFF77F
:102260000FFF48B10323614A4FF4967184F8403060
:102270005F4B60481FF030FF06F1080104235E4AFF
:102280002046A161FFF7FCFE38B10423574A4FF402
:102290009A7184F84030594BEBE706F10C010423A6
:1022A000574A2046A161FFF7EBFE074638B10523E8
:1022B0004E4A40F23B1184F84030524BD9E706F1C8
:1022C00010012046FFF7ECFE054620B94E4B40F2C8
:1022D0004111464ACDE706F1140804234B4A204633
:1022E0004146FFF7CDFE002849D0062384F8403050
:1022F0000423474A06F118012046FFF7C1FE0028D3
:102300003FD0072384F840304544424F0C222046FA
:102310002946FFF7F3FE05F1080604233A46204656
:102320003146FFF7ADFE94F84030002848D0002B2E
:1023300048D1A36AAB4249D805F10C0304352046C5
:10234000A3612946FFF7ACFE30442946606220466F
:10235000FFF7A6FE0644042220463146FFF7CEFED4
:1023600004232D4A31462046FFF78AFE002838D143
:102370000123E6616361A3692362BDE8F08101275F
:10238000B6E7002FC0D006F120012046FFF788FEF7
:102390004FF47A7306F13001B0FBF3F06060204631
:1023A000FFF77EFE06F14001A0602046FFF778FEB1
:1023B00006F14401E0602046FFF772FE2061A3E7CA
:1023C000002BB9D00A2384F84030D6E7291D2046D7
:1023D000FFF766FE85190C2220462946FFF78EFE80
:1023E00099E70B23EFE700BFA7360208C5360208BE
:1023F000AC3602087B350208F2360208F7360208CE
:102400000F370208143702082A3702083637020845
:102410003B3702084037020845370208C0E90A2165
:1024200000220263FFF70CBF10B5002304460846E4
:10243000E3620B6821639B689847A0622046BDE871
:102440001040FFF7FDBE000037B5144C144D23605B
:102450000024144B1C60144B1C60144B2C601C603B
:10246000134B1960134B1A60134B1C60134B2A68F3
:102470004FF4C0751C701C74C3E90244C3E90644E0
:1024800003EB02130E4AD2686A4300924FF45042A3
:102490005B6805F067FC204603B030BDC49D002496
:1024A000A09D0024B09D002494070024C09D00241A
:1024B000B89D0024BC9D00249C070024100000242B
:1024C0007C0700244B68012B15D1CB681A071EBF6F
:1024D00023F00F031033CB608B6818071EBF23F067
:1024E0000F0310338B60CB688A681B0912095343B2
:1024F0000E4A13607047022B0ED1CB681A0703D027
:1025000023F00F031033CB608B685A071EBF23F0F4
:10251000070308338B607047002BFCD1CB6858074A
:10252000F2D023F007030833EDE700BFA89D002495
:102530000B4A13680B4430B413600A4A1268934282
:102540000CD2094CD21A2568B2F5504F294428BF45
:102550004FF45042216030BC05F066BC30BC70477F
:10256000C09D0024BC9D0024B89D0024F8B5204CDB
:102570000121204D064623681F4F1B01E9542368A3
:1025800005EB03139A601D4B1968226805EB0212D4
:10259000D1601A68F9680A441A602368013323601D
:1025A0002368012B01D90023236023681B01EB5C06
:1025B00033B10221304605F009FC114B01221A60AB
:1025C00022683046FB6805EB02154FF4C07269685B
:1025D0005A4305F02CFC0B4B1B681A7A3AB99B7ACC
:1025E0002BB9094B1868BDE8F84008F0B3BDF8BD39
:1025F000A09D0024100000247C0700249C070024D8
:10260000B09D0024A49D00249807002472B6FEE724
:10261000014B01221A607047B49D002438B5164D55
:1026200004462B6813B1154B1B681BBB144B186871
:10263000037A63B9134B144A1B681B01D35C012B4B
:1026400005D10E4B1B6813B903681B6998470F4AE5
:102650001368012B0CD10E4B0B491B681B01CB5C83
:1026600033B92B6823B902212046136005F00DFE13
:10267000022038BD0120FCE7B49D0024900700240F
:10268000A49D00249407002410000024B09D002481
:10269000A09D002470B50546002A35D0002B33D00C
:1026A0001A4803240461EC6826074FF4166618BF25
:1026B00024F00F04466018BF103404602409C4607D
:1026C0002C6914F00F0418BFC4F110048460104882
:1026D000FFF7BAFE0F4C6A6C0F4B0D4D1A6028467F
:1026E000FFF79CFF20602368022B05D10B4B4FF0B6
:1026F000FF31186808F002FD2368012BEFD1002399
:10270000074A1360074A136070BD00BF7C070024AE
:1027100094050024AC9D0024A49D00249807002467
:10272000B49D0024900700242DE9F04F9946436999
:1027300085B004460F4690462BB9294BB021294A53
:1027400029481FF0C9FC08228169FFF7D7FCA66958
:1027500020463146FFF7BFFCB11C83462046FFF7F9
:10276000BAFC311D82462046FFF79AFC06F10801AB
:10277000A36A054642189A4226D243F230039B458B
:1027800017D146F264339A4513D190B10246A16144
:102790002046FFF7B3FC0E9B01462A462046CDF8A3
:1027A0000080CDE901933B46FFF774FF6369013375
:1027B0006361A3692B4405B908330133626A23F0CE
:1027C00001039342A36109D1012301206361236ABC
:1027D000A36180F0010005B0BDE8F08F0020F8E7AC
:1027E0002B3602084A3702087B350208F8B5044642
:1027F000816916460822FFF781FCA7692046391D2A
:10280000FFF74EFC07F10801024605462046FFF798
:1028100075FC01466EB12A46074C084D3346074801
:10282000FFF712FE2846FFF7F9FE20602368002B11
:10283000F8D00120F8BD00BFAC9D00249405002411
:102840001B4AD0F80CC0F0B54FEA0C131468556859
:10285000184E194FB3FBF4F104FB11334D431169CA
:1028600001FB03F401232D0173633F68D368FF1A52
:102870001905BC4517D39268C2F110020A4372646D
:102880000E4AC3F1320311681B010A4A214429444C
:10289000D163136400231361094BD3614368D36090
:1028A000084B1360F0BD41F010017164E8E700BF10
:1028B0007C07002400100052A89D0024C49D002421
:1028C0000B0009FF012301000C4B00220270196864
:1028D0008260013119601968012900D91A60084B1A
:1028E000084A1B68D2689B1AC2689A4202D3064BF8
:1028F00001221A60054B186808F02CBC94070024CC
:10290000A89D00247C070024900700249807002439
:102910000121002208B5084608F0A6FB0A4B186002
:1029200028B90A4B28210A4A0A481FF0D5FB002281
:102930000421012008F037FC074B186018B9074B39
:102940002C21034AF0E708BDCC9D0024EC37020897
:102950003538020864380208C89D0024B5380208DA
:10296000024B4FF0FF31186808F0C8BBCC9D002423
:10297000014B186808F0EEBBCC9D0024024B0021EF
:10298000186808F0BBBB00BFCC9D0024FFF7F0BF68
:102990000023034803491A46006808F03FBC00BF03
:1029A000C89D00243000002413B50023074C01A962
:1029B0001A46206808F063FC4FF0FF33002201A99B
:1029C000206808F05CFC02B010BD00BFC89D002468
:1029D00003685B6C184701207047FEE740F2EF3058
:1029E0007047000010B504464FF0FF31D0F8A40D39
:1029F00008F0F8FA606803681B68984778B9637A4A
:102A00006BB1237A5BB984F8A03D204623685B6AEA
:102A10009847D4F8A40DBDE8104008F006BB0B4958
:102A20000B4A0B681B01D35C012BF2D1207A0028E2
:102A3000EFD1A07A0028ECD1086884F8A03D02EB21
:102A400000102372FFF7FCFEE3E700BF94070024A9
:102A500010000024054B4FF080620360044BC3F864
:102A60008820BFF34F8FBFF36F8F7047583A02082B
:102A700000E100E010B5044640F6A851FFF7EAFF78
:102A800020461EF0B2FF204610BD0000104B82B061
:102A9000D3F8D42042F01002C3F8D420D3F8D420C5
:102AA00002F010020192019ADA6F42F01002DA6726
:102AB000DA6F22F01002DA67064B074A1A62074AF9
:102AC0005A62074B4FF080629A6002B0704700BFB5
:102AD0000044025808060024292D0008DB290008BC
:102AE00000E100E008B50A2809D8DFE800F0061088
:102AF0000E080808081010101000022008BD054B31
:102B00009121054A05481FF0E7FA0020F6E7012069
:102B1000F4E700BFF7380208123902085D390208ED
:102B200038B50C46887FFFF7DDFF124BA58AE28A95
:102B3000586342EA054221695A64628BD963521B89
:102B40001A642568082D0ED19A611A6158620A4AE2
:102B5000207F42EA0062DA61E2681A62074A59613C
:102B6000D9601A6038BD0022D8611A61E2689A63A0
:102B7000034AF6E700100052090001000123020099
:102B80000123030008B50B280BD8DFE800F006127C
:102B9000100A0A0A0A0808080808022008BD0520C9
:102BA000FCE7054B7021054A05481FF095FA002007
:102BB000F4E70120F2E700BFF7380208AC39020859
:102BC0005D3902082DE9F8434F7F89463846FFF703
:102BD000D9FF99F81E5080462846FFF7D3FF0646D6
:102BE0002846FFF77FFFB9F81410B9F81A40B9F872
:102BF0001820454B641A521A1C649C611A61B9F87A
:102C00001620586342EA0142D9F810105A64D9F8E4
:102C10000420D963DA60D9F8004099F81C20802C90
:102C200022D00FD8202C66D0402C64D0042C5CD04D
:102C300048EA0260344BAF4240F40030D86160D0C3
:102C4000324A3FE0B4F5807F04D0B4F5007FEFD185
:102C50002F4800E02F4840EA0262DA61D9F80C20E0
:102C60001A625E6259612CE048EA0260D9F80840B5
:102C700040F40030D8615E625961211DD96221782B
:102C800041B1012921D0244B40F20B11234A2448A1
:102C90001FF022FADA69618822F47F42013922F0BA
:102CA000100242EA0122DA610122174BD96941F090
:102CB0002001D961D9698906FCD410219960002AC4
:102CC000BED0184A1A60BDE8F883D969FF3A608817
:102CD00021F47F4118BF0122013821F0100141EA9F
:102CE000002141F01001D961DFE748EA026242F4B5
:102CF0000032DA61B5E748EA0262034B42F400327F
:102D0000F7E742F20132DDE7001000520123010033
:102D1000090002000A000200F6390208103A02080F
:102D20005D39020801230200024B1B6858680368E2
:102D30005B6918477452022490F8A03D10B5044610
:102D4000D3B903689B6A984719491A4A0B681B0153
:102D5000D35C012B2AD11848006838BB207A28BBE5
:102D6000A07A18BB086884F8A03D237202EB00101B
:102D7000BDE81040FFF764BD037A43B1002303723E
:102D80000B4B18680B4B03EB0010FFF79DFD6068C1
:102D900003681B68984748B9637A3BB1236884F895
:102DA000A00D20465B6ABDE81040184710BD00BF6B
:102DB00094070024100000249007002470B50446F6
:102DC0000E4B0C300026254660226060267266722B
:102DD00045F8203B29460BF0A1FD04F55A63EE604F
:102DE00024359D42FBD184F8A06D0020C4F8A46D69
:102DF00008F0C3F8C4F8A40D204670BD583A020884
:102E0000034B1A68D207FCD423229A60704700BF94
:102E1000001000520B4A5369DB0311D500290FDD66
:102E200000F01F031944BFF34F8F0144C2F868023A
:102E300020300B1A002BF9DCBFF34F8FBFF36F8FDD
:102E4000704700BF00ED00E030B5104C2568ED077D
:102E5000FCD423250904FF2BA5604FF0010541EAAE
:102E6000050165636164E0630CD0094922F07F428B
:102E7000656241EA0363E361064B22626061E060E0
:102E8000236030BDE561044BA263F9E700100052F6
:102E900009000100010002000100030030B50E4CE2
:102EA0002568ED07FCD423251204FF2BA5604FF005
:102EB000010542EA050265636264E063E16007D0F0
:102EC000064A42EA0363E36165626061226030BDE5
:102ED000034BE3612560FAE7001000520100020095
:102EE000010002FF30B50B4C2568ED07FCD423250B
:102EF00012041B06A560012543F400332A436563D1
:102F00006264E063E160E361034B656260612360DA
:102F100030BD00BF001000520100020001207047C8
:102F20000C2070470C2303FB0100083070470C2372
:102F300003FB010008307047012070474FF40F7009
:102F400070474FF40F7303FB0100083070474FF4D4
:102F50000F7303FB010008307047012070471020F9
:102F6000704700EB01100830704700EB011008308B
:102F70007047084600F038BE034B10B504460360A6
:102F80000AF055F9204610BD103B020810B5044662
:102F9000FFF7F2FF142120461EF027FD204610BD4A
:102FA000034B10B5044603600AF041F9204610BDFA
:102FB000DC3A020810B50446FFF7F2FF4FF4117136
:102FC00020461EF012FD204610BD0000034B10B538
:102FD000044603600AF02BF9204610BDA83A020807
:102FE00010B50446FFF7F2FF182120461EF0FDFC45
:102FF000204610BD084B10B50446036000F51C7058
:10300000FFF7BAFF04F12C00FFF7CAFF04F1140028
:10301000FFF7DCFF204610BD443B020808B502481C
:10302000FFF7E8FF08BD00BF88AC002410B50446D8
:10303000FFF7E0FF4FF4797120461EF0D6FC2046E2
:1030400010BD00002DE9F34100F050FC00240546BE
:1030500000F050FC2346014622462846009412F018
:10306000BFFA274B274A2046274D1A6001F004F883
:10307000264B274A27489A6012F05EF92B68BFF367
:103080005B8FDB0735D428461EF0B1FC88B3224C99
:10309000224B04F5227604F1140004F12C0804F507
:1030A0001C7723606060C4F80880E76026610AF03E
:1030B000BFF81B4B404663610AF0BAF8194B38461B
:1030C000E3620AF0B5F8184B04F52170C4F87032C9
:1030D00001F048F8224604F52171304601F038F835
:1030E000304600F081FD11481FF014F828461EF00C
:1030F0008AFC0F4802B0BDE8F041FEF7DBBC00BF20
:10310000D85202244C9E002484AC00246C9E0024DF
:10311000509E00243400002488AC0024443B020864
:10312000A83A0208DC3A0208103B02081D300008E9
:10313000D09D0024704700000148FEF7CDBC00BFC1
:10314000D09D002473B50E4C0E4B0F4E20460F4DF4
:103150003360FFF733FE284616F0E4F80C4810F011
:1031600019FA4FF448734FF4F07221460948CDE93B
:10317000003233462A46FEF743FD02B070BD00BF61
:10318000D89E0024B832020880AC00246C9E002433
:10319000509E0024D09D00240148FFF75BBC00BF77
:1031A000D89E00240020704781807047C1807047FE
:1031B0000181704741817047704770477047704781
:1031C000704710B4C4880368121B84885B6D091BA8
:1031D00012B25DF8044B09B218474FF6FF738381B2
:1031E0004FF0FF3303621368C36110607047002023
:1031F00070478B88838001207047704780F82610C5
:10320000704790F826007047002210B5B1F90840C9
:10321000B1F90A10028042808480C18010BD002272
:10322000028042808280C28070470177704780EDC3
:10323000080A704780F82410704780F825107047FE
:1032400001207047983070478C3070478430704749
:1032500070470000024B902283F85A23704700BF4A
:1032600000E100E070470163C0E90D21704770473D
:103270007047704700EB8100114640680368DB68C7
:10328000184780F83C10704710B5044648211EF0DE
:10329000ACFB204610BD10B504462C211EF0A5FB4A
:1032A000204610BD10B50446BC211EF09EFB2046F2
:1032B00010BD000038B504460AF085FC23685D6E39
:1032C0000EF0F0FF01462046A84723680849204633
:1032D000D3F8885000231A46A8476368054A536408
:1032E000054B5A60054A1A639A63054A5A6338BD0A
:1032F000009411D074B100242CB10024000000D03F
:103300000094110038B504460D46406C4FF0FF3173
:1033100007F068FE606C07F088FE242303FB054578
:10332000002385F8283094F828300BB9236BA36369
:1033300038BD0AF0F9BB0AF05ABD90F8252012B149
:1033400003685B6918477047124A5369DB0370B51D
:103350001ED50023C2F88430BFF34F8FD2F88030DF
:1033600043F6E074C3F3C900C3F34E335B0103EAD1
:103370000406014646EA81750139C2F87452F9D251
:10338000203B13F1200FF2D1BFF34F8FBFF36F8FAC
:1033900070BD00BF00ED00E008B531B1044B4FF443
:1033A000B871044A04481EF097FE90F8290008BD41
:1033B000503B0208643B0208EE3C020810B531B1F4
:1033C000064B4FF4B571064A06481EF085FE40686C
:1033D00011460368BDE810401B6B1847503B0208BC
:1033E000383D0208EE3C020808B529B1034B7921AB
:1033F000034A04481EF070FEC06808BD503B020836
:10340000E63E0208EE3C020810B5044629B1194B0D
:10341000A221194A19481EF05FFE052A15D8DFE8D7
:1034200002F0031115171C22406803681B699847B6
:1034300058B1012384F8293084F82C300023C4E9E2
:10344000043302E0002380F8293010BD0362F5E761
:103450000362012380F82A30F0E7002380F8293046
:1034600001230362F1E7003B18BF012380F82D30F0
:10347000EBE700BF503B02089B400208EE3C02080D
:1034800010B50C4611461A462CB1064B9021064A3F
:1034900006481EF021FEC46040680368BDE8104085
:1034A0009B681847503B02086F420208EE3C020836
:1034B00008B529B1054B8221054A06481EF00CFECD
:1034C000C0E90411C0E9063208BD00BF503B020844
:1034D0004A440208EE3C020890F83D3010B504461C
:1034E00053B14FF0FF31406C07F07CFD002384F8AE
:1034F0003D30012384F83E3010BD90F825201AB1EC
:1035000090F8242002B118607047000010B50446FE
:10351000104629B1134BD021134A14481EF0DCFD8C
:1035200094F8293033B1124B1B6893F86B20636910
:103530001344636194F82B300BB9012010BDA368CC
:10354000036303685B699847002394F82C0084F8B0
:103550002B300028F1D194F82D30002BEED184F8D7
:103560002900EBE7503B020806460208EE3C020841
:103570007452022470B51A4C05460AF017FB94F8F1
:10358000293013B994F82A30ABB1E169D4E9053296
:10359000534322694A4393420DD394F83C0038B117
:1035A0009B1AB3FBF1F2994298BF02F1FF326262BB
:1035B000012384F82E300123206C84F83D3007F07D
:1035C000C9FD94F83E302BB1606C07F02EFD00234E
:1035D00084F83E3068680368BDE870401B6918478E
:1035E0002CB10024044B4FF08062C3F88820BFF355
:1035F0004F8FBFF36F8F704700E100E0024B4FF039
:1036000080629A60704700BF00E100E0F8B50346B1
:1036100090F82800D8B94FF480729E6B0125D860CD
:103620009A8506F58C12186102F5A05258619861CE
:10363000D861186258629D6283F82E00D3E90C4766
:103640003C44A2420AD90B4B52210B4A03E00B4BDC
:1036500040F2C5110A4A0B481EF03EFD9E609A6377
:103660004FF4487381F83450CB864FF4F0730863FD
:103670000B87F8BD5E49020899490208A74702086E
:10368000D7470208EE3C0208002370B5124E0446EC
:103690008380124B0360336893F858200AB1D86CCA
:1036A00000B998680368DB6A9847431E5D425D4134
:1036B0003368D86C30B10368DB6A9847012808BFCB
:1036C00045F001052DB9064B2721064A06481EF094
:1036D00003FD204670BD00BF745202244C4C02080A
:1036E0003C4B02089A4B0208D34B020870B5244E9B
:1036F0003568BFF35B8F15F001053FD130461EF0F2
:1037000076F900283AD01F4C1F4B04F13400256194
:10371000E584A562A585C4E90035C4E9025510F029
:1037200098F904F158000CF07FFC184B2046A36573
:10373000174B40F8843BFFF7A7FF164B1648C4F819
:1037400084302433C4F89050C4F88C306423C4F817
:103750009C50C4F8A850C4E928350023C4F8AC3004
:10376000C4F8B030C4F8B430C4F8B8300B4BC4F867
:1037700098301EF0CFFC30461EF045F9014870BD70
:103780006CB0002470B00024345A02086C4C02085B
:10379000E44C0208805A020851320008B85A020864
:1037A0002DE9F743044601264FF416674FF0FF3129
:1037B000206C07F0A3FC4FF0FF31606C07F012FCA7
:1037C00094F82E3043B36568D4F820802B6884F8D1
:1037D0002B60B8F1000F23D05B6A4146284698471A
:1037E000002323622B684FF4487200972846D3F8D1
:1037F00014804FF4F073A168C047236984F82C004B
:1038000001332361F0B12B6828469B6A9847013841
:103810000023E06084F82E30606C07F006FCC5E7FA
:10382000626A002ADED02846D3E909939847616A84
:1038300001442846C8472369626AC4F824801344B7
:103840002361CFE70120E3E7014808B5FFF7A8FFB0
:103850002CB1002438B514480025FEF7EFFB134CBB
:10386000134B2A462946012023604FF48073A56339
:10387000A387A38584F83E5084F82E50C4E90C55E4
:10388000C4E91055C4E90155C4E90355C4E9055517
:10389000C4E90755C4E9095507F0E6FB206428464A
:1038A00007F06BFB606438BD74B100242CB10024B8
:1038B000304D0208704710B5044604211EF095F8FB
:1038C000204610BD012908B506D0022908D059B9F3
:1038D00000F010FC006808BD00F00CFC4068FAE73E
:1038E00000F008FC8068F6E70020F4E70048704725
:1038F000804D02080320704713B5002451B10368BE
:1039000001AA01948DF803409C680DF10303A047C0
:1039100002B010BD0846FBE7C0897047008A7047B7
:10392000C088704780887047807A00F07F007047B9
:10393000807AC00970470020704700009FED010A9F
:10394000704700BF000000007047704700F5987393
:103950000868496803C37047704770474160704703
:1039600070470000064BC0F84801C0F84C310023F6
:10397000C0F8503100F5A273C0F84031704700BF65
:10398000253A00080123037270477047704710B44E
:1039900041680346C2689B68541001EB6200D2077D
:1039A00048BF0A595DF8044B48BFD358184703462F
:1039B000406830B19A681AB9D86800F001007047C1
:1039C0000120704710B504460C211EF00EF8204669
:1039D00010BD10B5044610211EF007F8204610BD9A
:1039E00010B504464FF4AE711DF0FFFF204610BD28
:1039F00010B50EF057FC0368BDE81040DB6B1847AC
:103A000010B50446D0F8400158B10368DB68984708
:103A100038B1D4F8400103689B6898470023C4F884
:103A2000403110BD2DE9F14FD0E9556A0746B06825
:103A300003681B6A9847B0F50F7F05D2444BA3215A
:103A4000444A45481EF048FB706803681B6A984763
:103A50000F2803D8414BA4213E4AF2E7F0680368DF
:103A60001B6A98470B2803D83D4BA521394AE8E744
:103A7000DFF8F4900EF016FC04300EF051FCD9F88B
:103A8000000010B10368DB689847D9F8000010B156
:103A900003681B689847DFF8D480D8F8000010B19D
:103AA00003685B699847D7F83C0110B103685B680D
:103AB0009847D8F8000010B103681B689847D7F8FA
:103AC0003C0110B103689B689847F06800214FF0F3
:103AD000000B03685B6A9847224B0446C0F804B0A9
:103AE00080F808B059460360B06803685B6A98477D
:103AF000054600F06BFB7068594603685B6A98479F
:103B00000646294600F040FB331DC7F83C612846B5
:103B1000C9F80040C8F80050CAF800302B68C6F851
:103B200008A0DB68EE639847336830461B68984707
:103B30002146284610F09EFC236820461B699847C2
:103B4000236820465B6901B0BDE8F04F184700BF0D
:103B5000BC4D02084A4E02081C4F0208714F020871
:103B6000145002082C510208BC520224B8520224FC
:103B7000044B1B6893F858200AB1D86C00B99868B8
:103B8000704700BF7452022470B5164604460D46B5
:103B90000EF098FC104B00211C60104B2360104B62
:103BA000C4E951310F4B1868C4E953110368C4E9E3
:103BB0004F119B68C4E955659847FFF7D9FF16F088
:103BC000B2FCFFF7D5FF16F025FDFFF7D1FF16F089
:103BD0002DFD204670BD00BFC8520224D8500208F7
:103BE000C050020874520224064BC0F84801C0F8C5
:103BF0004C310023C0F8503100F5A273C0F84031B9
:103C0000704700BF253A0008406A7047806A7047D5
:103C100070478B88C069DB0A0A6850F8230010449B
:103C2000704710B50446BAB1107B68B1537BD27AA5
:103C30001B0203F4E0631A43236A03EB82031A882E
:103C40008A4202D193F9020010BD05D8013804332D
:103C500080B20028F3D1F7E70020F5E710B504465D
:103C60002C211DF0C2FE204610BD000030B58BB0E7
:103C70000446BDF860500895BDF85C5007959DF866
:103C8000505006959DF84C5005959DF84850049568
:103C90009DF8445003959DF8405002959DF83C5086
:103CA0000195BDF8385000950FF090FF064B204667
:103CB0002360159BE361169B2362199B63621A9B29
:103CC000A3620BB030BD00BF50510208704770476F
:103CD0007047704770477047704710B504464FF4FF
:103CE0000E711DF082FE204610BD2DE9F0411D46EB
:103CF0000368044616461B6BBDF918709847236885
:103D0000314620465B6B98472368294620469B6BCB
:103D10009847236839462046DB6BBDE8F0411847D9
:103D20002DE9FF470446002510F0F8F9434B2746DC
:103D3000E56304F19806FF2247F8403B4FF4F07A20
:103D40003F4B304684F8662004F10409256604F1EF
:103D50006C08A566C4F89450C4E910354FF480731C
:103D6000A4F86430A4F89030364BC4E91255E366E9
:103D7000C4E91455C4E91655C4E91C55C4E91E55D7
:103D8000C4E92055C4E922550CF0ECF92A4629462D
:103D900038464FF44873CDF800A0FFF7A6FF4FF068
:103DA0007F4339464846A36609F024FC2A464FF46F
:103DB000487329464046CDF800A0FFF796FF03A9B7
:103DC0003046ADF80C5009F0A7FB4FF4A87330460D
:103DD00048220093E821FFF788FFA82230461146C9
:103DE0000CF06BFA304670226FF070010CF0EAFABA
:103DF0002B46642229463046009509F03AFA2946B6
:103E000030460CF089FA60230F22304601210CF075
:103E10003FFA304601210CF0DDF9304601210CF06B
:103E2000DCF93146404609F0E5FB4846414609F0D9
:103E3000E1FB204604B0BDE8F08700BFB85102089E
:103E4000505B0208605902087047000030B5164DFB
:103E50008FB02C68BFF35B8F14F0010420D128468B
:103E60001DF0C5FDE0B13F23012210490993104B1D
:103E700010480893104B0A940594CDE90643042397
:103E8000CDE903320A23CDE90B440093CDE9014487
:103E9000FFF7ECFE09481EF03DF928461DF0B3FD82
:103EA00004480FB030BD00BFBCB10024C466020896
:103EB000F4660208C0B1002400670208493E000809
:103EC0007047000030B5164D8FB02C68BFF35B8F84
:103ED00014F0010420D128461DF089FDE0B13F23F4
:103EE000012210490993104B10480893104B0A9473
:103EF0000594CDE906430423CDE903321423CDE92B
:103F00000B440093CDE90144FFF7B0FE09481EF0D1
:103F100001F928461DF077FD04480FB030BD00BF01
:103F2000ECB10024D4660208F8660208F0B100245F
:103F300004670208C13E00087047000030B5164D06
:103F40008FB02C68BFF35B8F14F0010420D128469A
:103F50001DF04DFDE0B13F23012210490993104BA4
:103F600010480893104B0A940594CDE906430423A6
:103F7000CDE903322823CDE90B440093CDE9014478
:103F8000FFF774FE09481EF0C5F828461DF03BFDFA
:103F900004480FB030BD00BF1CB20024E466020824
:103FA000FC66020820B2002408670208393F0008B6
:103FB00000207047002070470EB403B503AB00210A
:103FC00053F8042B01930FF005F902B05DF804EBF0
:103FD00003B070470CB407B504AB53F8042B01933E
:103FE0000FF0F8F803B05DF804EB02B07047000082
:103FF000436C10B5044673B3038F2BB9184BC5211E
:10400000184A19481EF068F8C38E00EB43035B8C16
:104010000BB310F055FF238F012B03D8134BCB218B
:10402000134AEEE7E28E40F63F10531C9BB2092B79
:10403000194688BFA3F10A0104EB4101498C814272
:1040400009D10A2B04EB420228BF0023508C04EB59
:104050004303588451842046BDE8104010F032BE1E
:10406000E4510208ED51020898520208F052020889
:10407000FE52020810F0EFBD38B518BB124B1348C2
:104080001C681349B4B12268224402606268224469
:104090000A60A26814440F4B00221A8000F02AF82C
:1040A000054600F025F80C4B1C600C4B1D600C4BBA
:1040B000188007E00B4B03600B4B0B600B4B1C682D
:1040C000002CE8D138BD00BF58B2002450B2002403
:1040D0004CB2002454B20024CC520224D452022404
:1040E000D05202244C0C0A90480C0A90500C0A90B2
:1040F00000207047004870475CB2002410B5054CA2
:10410000FFF7E0FE2060FFF719FF6060FFF79EFEFB
:10411000A06010BD5CB2002410B5002404600C60E7
:1041200014601C6010BD704710B504464FF4AE71AA
:104130001DF05BFC204610BD10B50446D0F85801B8
:1041400000F013F82046BDE810400EF047B900001B
:1041500010B50446FFF718FD014B2046236010BD43
:10416000D853020800220260704770477047043835
:104170007047704710B5044610211DF036FC2046EC
:1041800010BDA0F10400F5E70022C1608260024A80
:1041900002601832426070472C54020870470000D9
:1041A000034B10B504460360FFF795FD204610BD94
:1041B0005454020810B50446FFF7F2FF4FF40F7194
:1041C00020461DF012FC204610BD000010B504462C
:1041D000FFF7A6FD034B204623600123C4F83832C5
:1041E00010BD00BF54540208FFF776BD38B500F18A
:1041F00098050446284609F079F880B9D4F8383291
:104200005B42C4F83832284609F070F8D4F8381206
:10421000002201442846BDE8384009F078B8284615
:1042200009F064F86428EED1E8E701234FF44872FE
:1042300000200B8002238B704FF4F073C1E901233F
:10424000704790F82430012B04BF002380F82430FD
:10425000002070470020704710B404690089A4460C
:104260005DF8044B604710B4C4680089A4465DF84B
:10427000044B604770B500F118050E4609782846D2
:1042800000F012F904463179284600F019F9044487
:10429000317A284600F020F90444317B284600F0AA
:1042A00027F90444317C284600F02EF90444317D7E
:1042B000284600F035F9C44214BF4FF0FF3000200B
:1042C00070BD13B50C4618300DF1070100F040F930
:1042D0009DF80730236002B010BD37B500F1180516
:1042E0000C4601A9284600F0D2F808BB9DF804301E
:1042F000022B98BF184604232060032128460DEBAB
:10430000030200F0B1F8B0B99DF804309DF8052023
:104310001B0203F4706313439DF8072063609DF84C
:1043200006301B0203F470631343A36003B030BD77
:104330004FF0FF30DFE74FF0FF30F7E7183000F0C5
:10434000A1B80121183000F0F7B80021183000F0B2
:10435000F3B810B590F8243004466BB90368984759
:104360002046FFF7F2FF00384FF0010318BF01208D
:1043700084F82430404210BD0020FCE70020704744
:1043800030B500F1180585B00C46284601A900F0AB
:104390007EF8002845D19DF80430022B98BF1846BE
:1043A00020600C2301AA0321284600F05DF80028B4
:1043B0003AD19DF804209DF805101302920903F4E8
:1043C0007063E2610B439DF807109DF80A2063605B
:1043D0009DF806301B0203F470630B439DF80B102D
:1043E000E3609DF8083063619DF809301B09636242
:1043F0001302920903F4706322620B439DF80D10BF
:10440000A3609DF80C301B0203F470630B4323611F
:104410009DF80E30A3619DF80F301B09A36205B013
:1044200030BD4FF0FF30BBE74FF0FF30F7E7000043
:1044300090B14A680B6842600A8903600281CA68C9
:10444000C2600A6902614A6900624261044AC2614B
:10445000044A826103B118474FF0FF30704700BF34
:10446000594200086742000810B4D0E90140A44650
:104470005DF8044B604710B404688068A4465DF89A
:10448000044B604701230A461946FFF7EDBF10B5FC
:104490000A460C4601230221FFF7E6FF18B92378EC
:1044A00003F00F03237010BD07B501238DF807102B
:1044B0000DF107029121FFF7DEFF03B05DF804FB69
:1044C00007B501238DF807100DF107029221FFF7C0
:1044D000D2FF03B05DF804FB07B501238DF8071088
:1044E0000DF107029321FFF7C6FF03B05DF804FB4F
:1044F00007B501238DF807100DF107029421FFF78E
:10450000BAFF03B05DF804FB07B501238DF807106F
:104510000DF107029521FFF7AEFF03B05DF804FB34
:1045200007B501238DF807100DF107029621FFF75B
:10453000A2FF03B05DF804FB07B501238DF8071057
:104540000DF10702A421FFF796FF03B05DF804FB0D
:104550000A460123A821FFF787BF000008B5012202
:10456000074BC3E900219A6000221946DA604FF632
:10457000FF7206F0F5F9003818BF0120404208BD6F
:1045800068B2002408B50222084BC3E900210121CA
:104590000022C3E902124FF6FF72194606F0E0F955
:1045A000003818BF0120404208BD00BF68B2002497
:1045B0000A46D1E9033110B50B43516904240B437A
:1045C00091690B43D16912680B4307494A60012284
:1045D0000C60C1E902234FF6FF7206F0C1F9003802
:1045E00018BF0120404210BD68B2002408B5084B36
:1045F000C3E9002108210022C3E902124FF6FF722D
:10460000194606F0ADF9003818BF0120404208BD38
:1046100068B2002408B506F0C2F9003818BF0120BE
:10462000404208BD70B50C4609680546FFF796FF85
:1046300010B14FF0FF3070BD01F07CFC064601F078
:1046400079FC8642FBD021682846FFF79BFF0028B3
:10465000EFD12846D4E90012FFF7C8FF0028E8D1BF
:1046600021462846FFF7A4FF0028E2D1A16828468A
:10467000FFF7D0FF003818BF01204042DBE74FF0C2
:1046800000624FF400534FF48071C0E900234FF4EF
:104690008043C0E902314FF40023036100207047DA
:1046A00000B54FF4407395B04FF040720C93052362
:1046B0000F920222069300230B9206A913930093F4
:1046C000049303926A46CDE90D33CDE911331023EB
:1046D00002934FF48003059340F20113019341F2DA
:1046E000883304F044FD002814BF6FF0040000205C
:1046F00015B05DF804FB032941F2883230B508BFDC
:104700004FF4407395B018BF4FF480730C4606A960
:1047100005460C93062306930023CDE90D330F9332
:104720000B931393CDE9113304F020FC20BB40F22E
:1047300002230222032C4FF4800104902846CDE985
:1047400000334FF01003CDE902324FF005036A4603
:10475000CDE9051314BF4FF080734FF0407306A9E5
:104760000F9341F2883304F002FD002814BF6FF06C
:104770000400002015B030BD6FF00100FAE70329F6
:1047800030B508BF4FF440738FB018BF4FF480733B
:1047900004460D460693B72300930023CDE9073363
:1047A000099305930D93CDE90B33FFF7A4FF18B1DF
:1047B0006FF001000FB030BD41F2883269462046EB
:1047C00004F0D4FB0028F3D129462046FFF768FF08
:1047D0000028EFD0ECE700B54FF480738FB041F2C2
:1047E000883206933523694600930023CDE90733C9
:1047F000099305930D93CDE90B3304F0B7FB002823
:1048000014BF6FF0010000200FB05DF804FB00B58D
:104810004FF480738FB041F288320693F5236946D6
:1048200000930023CDE90733099305930D93CDE958
:104830000B3304F09BFB002814BF6FF00100002035
:104840000FB05DF804FB00B591B003290ED8DFE886
:1048500001F00229343F4FF4807308930E23029332
:104860004FF4806309934FF080730B9308224FF449
:1048700040534FF0004C02A907924FF0804205933D
:104880000023CDE90DC26A460A930F93CDE90033A8
:1048900004F0BEFC002814BF6FF00500002011B02A
:1048A0005DF804FB4FF4807308933D2302934FF4AB
:1048B000806309934FF00073D7E74FF48073089338
:1048C000EE2302934FF4406309934FF04073CCE71B
:1048D0004FF440730893ED23F3E700B591B003293B
:1048E0000ED8DFE801F00225303B4FF480730893C7
:1048F0000C2302934FF4806309934FF080730B9362
:1049000008236A4602A907934FF4405305930023F6
:104910000A930F93CDE90D33CDE9003304F078FC11
:10492000002814BF6FF00500002011B05DF804FBF3
:104930004FF480730893BC2302934FF400630993F0
:104940004FF00073DBE74FF480730893EC2302937E
:104950004FF4406309934FF04073D0E74FF4407336
:104960000893EB23F3E7032941F2883200B518BF1F
:104970004FF480738FB008BF4FF4407369460693BD
:10498000662300930023CDE90733099305930D9324
:10499000CDE90B3304F0EAFA002814BF6FF00100F0
:1049A00000200FB05DF804FB032941F2883200B506
:1049B00018BF4FF480738FB008BF4FF4407369463F
:1049C0000693992300930023CDE9073309930593B8
:1049D0000D93CDE90B3304F0C9FA002814BF6FF032
:1049E000010000200FB05DF804FB10B4846800885B
:1049F000A4465DF8044B604710B444680088A446A0
:104A00005DF8044B604770B5C36804460D4698478F
:104A10000646E3689847831BAB42FAD370BD00009B
:104A20002DE9F341002300F1100507460E4690469C
:104A30001946DE4A284600F099FB03230446DC4A67
:104A4000FF21284600F092FB00230444D94A19466E
:104A5000284600F08BFB02230444D74AFF21284656
:104A600000F084FB00230444D24A1946284600F093
:104A70007DFB04440023D14AC421284600F076FB84
:104A80000A2104443846FFF7BEFF0023CC4A2846DB
:104A9000194600F06BFB04440023CA4AC42128468F
:104AA00000F064FB0A2104443846FFF7ACFF002302
:104AB000C54A2846194600F059FB00230444C34A5E
:104AC000C521284600F052FB00230444C04A194681
:104AD000284600F04BFB00230444BE4AC52128466B
:104AE00000F044FB00230444BB4A1946284600F06A
:104AF0003DFB00230444B94AC021284600F036FBA0
:104B000000230444A94A1946284600F02FFB00233D
:104B10000444B34AD921284600F028FB002304446A
:104B2000B04A1946284600F021FB00230444AE4A4F
:104B3000C121284600F01AFB00230444AB4A194661
:104B4000284600F013FB00230444A94AC521284647
:104B500000F00CFB00230444A64A1946284600F046
:104B600005FB002304449B4AC521284600F0FEFAB9
:104B7000002304448D4A1946284600F0F7FA022320
:104B800004449D4AD821284600F0F0FA002304444A
:104B90009A4A1946284600F0E9FA00230444984A44
:104BA000C521284600F0E2FA00230444954A19463C
:104BB000284600F0DBFA00230444934AC02128462B
:104BC00000F0D4FA00230444904A1946284600F025
:104BD000CDFA002304448E4AC521284600F0C6FAC7
:104BE000002304448B4A1946284600F0BFFA0023EC
:104BF0000444894AC421284600F0B8FA002304443A
:104C0000784A1946284600F0B1FA00230444834A42
:104C1000C121284600F0AAFA00230444804A19461C
:104C2000284600F0A3FA022304447E4AB321284612
:104C300000F09CFA002304445E4A1946284600F01E
:104C400095FA06230444784ACE21284600F08EFACD
:104C500000230444754A1946284600F087FA0E23BB
:104C60000444734ACE21284600F080FA002304440D
:104C7000704A1946284600F079FA0E2304446E4A19
:104C8000CE21284600F072FA002304446B4A1946EC
:104C9000284600F06BFA0A230444694ACF212846CB
:104CA00000F064FA00230444664A1946284600F0DE
:104CB0005DFA00230444644ACF21284600F056FAE6
:104CC000002304443B4A1946284600F04FFA0A23C1
:104CD00004445E4ACB21284600F048FA00230444ED
:104CE0005B4A1946284600F041FA0F230444594A0A
:104CF000CB21284600F03AFA002304444B4A1946D7
:104D0000284600F033FA0F230444534ACB212846A7
:104D100000F02CFA00230444464A1946284600F0C5
:104D200025FA0A2304444D4ACB21284600F01EFAF6
:104D300000230444414A1946284600F017FA0F237D
:104D40000444474ACB21284600F010FA00230444CB
:104D50003C4A1946284600F009FA0F230444414A08
:104D6000CB21284600F002FA002304443E4A1946AB
:104D7000284600F0FBF90A2304443C4ACB2128468C
:104D800000F0F4F900230444394A1946284600F09B
:104D9000EDF90A230444374ACB21284600F0E6F90E
:104DA00000230444034A1946284665E08D5502084D
:104DB000895502088E550208875502088F5502084A
:104DC0009055020891550208925502089355020821
:104DD0009455020895550208965502089755020801
:104DE000985502089B5502089C5502089D550208DB
:104DF0009E5502089F55020885550208A0550208D5
:104E0000A1550208A2550208A3550208A45502089C
:104E1000A555020899550208A6550208A75502088B
:104E2000A8550208835502087D550208A9550208B5
:104E30006F550208AA55020861550208AB550208D1
:104E400057550208AC550208B95502084D550208DD
:104E5000AD5502083E5502082F5502082555020897
:104E60001655020807550208AE550208FD540208FF
:104E7000AF550208F354020800F078F90A230444FD
:104E80008E4ACC21284600F071F9002304448C4A54
:104E90001946284600F06AF90F230444894ACC21B8
:104EA000284600F063F900230444874A194628463F
:104EB00000F05CF90F230444844ACC21284600F01A
:104EC00055F900230444824A1946284600F04EF959
:104ED0000A2304447F4ACC21284600F047F90023E6
:104EE00004447D4A1946284600F040F90F23044443
:104EF0007A4ACC21284600F039F900230444784A44
:104F00001946284600F032F90F230444754ACC2193
:104F1000284600F02BF900230444734A194628461A
:104F200000F024F900230444704AC521284600F00B
:104F30001DF9002304446E4A1946284600F016F96C
:104F4000002304446B4AF521284600F00FF90023A2
:104F50000444694A1946284600F008F9002304442D
:104F6000664AC621284600F001F900230444644A39
:104F70001946284600F0FAF803230444614AFF2149
:104F8000284600F0F3F8002304445D4A19462846F9
:104F900000F0ECF800230444594A1946284600F072
:104FA000E5F810230444584AE121284600F0DEF8D1
:104FB00000230444524A1946284600F0D7F8044416
:104FC0001023524AE221284600F0D0F8044400237E
:104FD0004F4A1121284600F0C9F878210444384688
:104FE000FFF711FD4B4F002E61D0022E07D1002399
:104FF000494A3A21284600F0B9F804447E60B8F1E5
:10500000010F57D160230DF10702362128468DF894
:105010000730002300F0AAF8261804233F4A2A216B
:10502000284600F0A3F8064404233D4A2B212846D5
:1050300000F09CF83418C7F8008000260023394A95
:105040005121284600F092F804443346364A532151
:105050002846BE6000F08AF804443346334A55219E
:10506000284600F083F804443346314A5E2128463E
:1050700000F07CF8044433462E4A2921284600F0EB
:1050800075F80444334631461D4A284600F06EF850
:1050900004443346284A2C21284600F067F8C442CD
:1050A00014BF4FF0FF30304602B0BDE8F081334608
:1050B000224A9EE700233B60BFE700BFE954020895
:1050C000AD550208DA540208A9550208CB5402086B
:1050D000AA550208C1540208AB550208B25402088E
:1050E000AC550208A354020899550208BA550208A3
:1050F000BB550208BC550208BD550208BE55020842
:105100008D550208A05402089054020880540208E9
:10511000B055020878B20024B1550208C355020800
:10512000BF550208B3550208B4550208B555020828
:10513000B6550208B7550208B8550208B25502081C
:1051400060B14B6843608B688360CB688061C360EB
:10515000044B4361044B0361002070474FF0FF3064
:10516000704700BFEB490008F949000810B4046813
:105170008068A4465DF8044B60470000104A08B5FB
:105180001368013B13600BB1002008BD4FF4805140
:105190000C4801F03DFE0B484FF4005101F038FE81
:1051A000094A0A48D2F8F43023F08003C2F8F430F8
:1051B00002F07EF80028E7D06FF00700E5E700BFB7
:1051C000DCBC0024000C02580044025884B20024C5
:1051D0000023012210B5416004460362C0E9023297
:1051E000C0E90433C0E9063302F00CF8014608B107
:1051F000012010BD204602F032FA01460028F7D106
:10520000204602F052FA003818BF0120F1E70000F2
:10521000A14BA2482DE9F04F036093B0A04B1C684E
:105220001CB1002013B0BDE8F08F01221A6002F01B
:1052300011FA0028F5D19B4D4FF0120802270426E1
:10524000D5F8E0300DA9984843F00803C5F8E030E0
:10525000D5F8E03003F008030A930A9BD5F8E03054
:1052600043F00803C5F8E030D5F8E0300F9403F0C0
:1052700008030B930B9B4FF48053CDE91076CDE9D7
:105280000D3801F0DDFC4FF400530DA9864811964E
:10529000CDE90D38CDE90F4701F0D2FCD5F8F43057
:1052A00043F08003C5F8F430D5F8F43003F0800300
:1052B0000C930C9BD5F89C3043F08003C5F89C30D0
:1052C000D5F89C3023F08003C5F89C3004F0D8FC5E
:1052D00000286FD0754B2246A2464FF0100903EB11
:1052E0005003DFF8D0B1B3FBF0F000EB400500FA5B
:1052F00007F60146C5F13203C6F5C37623EAE37328
:1053000026EAE67600936A4B1B6888464FF0000C4D
:10531000B8F5AF7FCDF804C00CF1010C5DD30027C8
:10532000BE46009DBD4252D8BE4250D391454ED09C
:10533000142505FB03FA0133019D0BEB0A097F2BB2
:105340004BF80A20C9E9015E3ED9594A1360584B0F
:1053500040F6C4154FF0FF3256491B6800270593ED
:105360004300C3F5806BCDE901250BF1010B03F17F
:105370003205A3F6340308950993059B9F4238D163
:10538000019B7F2B16D81421019A4A4B4A43991846
:105390009B580C7C44EA03744B681B0503F47003B0
:1053A0001C438B681B0403F470231C43CB681B0253
:1053B0009BB21C4321463948FFF70AFF00283FF4FF
:1053C00030AF6FF007002DE791464FF0010A0EF164
:1053D000010E0F44BEF1100FA3D1BCF1100F884491
:1053E00096D101320144102A8FD1BAF1000FACD10D
:1053F000ADE70B684FF0000C089D03FB0003099E0E
:105400001D441E440395ABEB030507966D00009504
:10541000039D40F21452CDF810C00CF1010C9542DE
:105420002FD9A5F13206B0EB960F2AD2079E4FF086
:10543000000EDDF800902E44DDF80C8006F2A11A73
:1054400040F21242CDF818E00EF1010E924511D84B
:10545000B8F5167F0ED380450CD936EA260A28BF48
:10546000CA46029A924505D2049A0A61069ACDE983
:10547000017ACA60BEF5807F98441E44A9EB0309F7
:10548000DCD1009ABCF5807F1D44A2EB03020092A0
:10549000BFD10137143170E7001C005884B20024DA
:1054A000DCBC002400440258000C025800CA9A3B9D
:1054B000D8B20024DCB200241FB54FF47A740092F5
:1054C0000A4601460848CDE90134012301F00AFFEC
:1054D00040B1054802F0C1F8042814BF6FF0030082
:1054E0006FF0650004B010BD84B200241FB54FF406
:1054F0007A7400920A4601460848CDE90134012336
:1055000001F0CAFF40B1054802F0A7F8042814BF13
:105510006FF003006FF0650004B010BD84B200248A
:1055200000F008BD094A4FF4407C02604A684260BE
:10553000012282608A68C2600A6802610022C0E9B2
:1055400005C2C261CA68026203F0C4BC00500052C6
:1055500010B588B90A4C0B48A37861784BB9FFF7AE
:10556000BCF910B16FF0040010BD022300202370BD
:10557000FAE7FFF768F9F4E76FF00100F4E700BF1E
:10558000E0BC0024C8030024F8B50C46174630BB25
:10559000174D2B78022B25D0B2FA82F3154E5B09FA
:1055A00030461B01F36003F095FCF0B96B78032BD8
:1055B0000FD1032C05D1012300206C702B70AF702C
:1055C000F8BD3046FFF723F90028F4D06FF004004F
:1055D000F6E7032CEFD13046FFF7FDF8F4E76FF064
:1055E0000100EDE76FF01900EAE76FF00300E7E76D
:1055F000E0BC0024C80300242DE9F0470C46A4B009
:10560000002840F0AC81034D2F782FB1002024B04A
:10561000BDE8F087E0BC0024C34B4FF00409092625
:1056200016A9D3F8D4204FF04008C0484FF00A0A1A
:1056300042F48042C3F8D420D3F8D42002F480424C
:105640000192019ADA6F42F48042DA67DA6F22F44B
:105650008042DA67D3F8E02042F00202C3F8E0208B
:10566000D3F8E02002F002020292029AD3F8E0207E
:1056700042F04002C3F8E020D3F8E02002F04002FC
:105680000392039AD3F8E02042F00802C3F8E02026
:10569000D3F8E02002F008020492049AD3F8E02044
:1056A00042F02002C3F8E020D3F8E02002F020020C
:1056B0000592059AD3F8E02042F02002C3F8E020DA
:1056C000D3F8E02002F020020692069AD3F8E020F8
:1056D00042F02002C3F8E020D3F8E02002F02002DC
:1056E0000792079AD3F8E02042F04002C3F8E02086
:1056F000D3F8E02002F040020892089AD3F8E020A4
:1057000042F08002C3F8E020D3F8E02002F08002EB
:105710000992099AD3F8E02042F08002C3F8E02011
:10572000D3F8E02002F080020A920A9AD3F8E0202F
:1057300042F04002C3F8E020D3F8E02002F040023B
:105740000B920B9AD3F8E02042F04002C3F8E0201D
:10575000D3F8E03003F040030C930C9B0223CDE917
:10576000169303231A96CDE9187301F069FA012301
:1057700016A96F481893CDF85880CDF868A001F0AD
:105780005FFA4FF4006316A96A48169318971A96A1
:1057900001F056FA16A9CDF8589067484FF40079F1
:1057A0001A9601F04DFA16A96448CDF85890CDF834
:1057B00068A001F045FA082316A95F4816931A96C7
:1057C00001F03EFA802316A95C4816931A9601F060
:1057D00037FA16A95648CDF8589001F031FA16A9B3
:1057E0005648CDF8588001F02BFA4FF4804316A9A3
:1057F0004F48169301F024FA3A460F215C2000F03E
:10580000C9FB5C2000F0F8FB11A8FEF738FF6378B5
:105810004B4ACDF8408052F823200E92119A92FA0A
:10582000A2F2B3FA83F3B2FA82F20DA945485B09FA
:10583000013A1B010D920F93FFF774FE002840F010
:10584000918003213F48FFF78EF8002840F08480C4
:1058500003213C48FFF7A8F800287DD16978394832
:10586000FEF71EFF0146002876D13648FFF77BF889
:105870000146002870D13348FFF796F8014600280A
:105880006AD10123A8702F482B80FEF709FF00285A
:1058900062D169782B48FEF772FF00285CD14FF483
:1058A0004073ADF802001B9041F288321C938523AF
:1058B00016A916934FF040731F930223CDE91D00E4
:1058C000CDE92030CDE922001E4803F04FFB00282F
:1058D00042D141F288320DF102011A4803F0E7FB90
:1058E000002839D169781748FEF705FFA0BB81234E
:1058F00041F2883216A913481693BDF8023023F0FE
:10590000F0031B051B0D43F4004343F08003ADF887
:10591000023003F02BFBF8B941F288320DF102019D
:10592000084803F068FB0FE00044025800040258E6
:1059300000180258000C0258001C025800140258AB
:10594000C8550208C803002430B962782178FFF7EF
:105950001BFE00283FF45AAE6FF0040057E66FF0CC
:10596000010054E66FF0030051E600BF10B5044695
:1059700070B9094B0948036004F0E4FF7A2000F095
:1059800049FB0748074B036003F02AF8204610BD87
:105990006FF00100FBE700BF40410052E4BD00246E
:1059A000ECBC00244000005201221549154B10B5F3
:1059B000C0E90012826004212022402488B0C0E99E
:1059C00003124FF4C072C0E9054200224FF4006494
:1059D000C0E907244FF4805444629A6207220223EC
:1059E000CDE9031269440793CDE90132CDE90533CE
:1059F00004F080FF003818BF012008B010BD00BFC0
:105A000040410052E4BD0024F0B505468FB00028A7
:105A100040F0DD80714B032709A97148D3F8D420E9
:105A2000704C42F48052704EC3F8D420D3F8D42086
:105A300002F480520192019AD3F8D42042F001027C
:105A4000C3F8D420D3F8D42002F001020292029AC3
:105A5000D3F8E02042F00802C3F8E020D3F8E020B9
:105A600002F008020392039AD3F8E02042F01002F9
:105A7000C3F8E020D3F8E02002F010020492049A68
:105A8000D3F8E02042F02002C3F8E020D3F8E02071
:105A900002F020020592059AD3F8E02042F040027D
:105AA000C3F8E020D3F8E02002F040020692069A04
:105AB000D3F8E02042F08002C3F8E020D3F8E020E1
:105AC00002F080020792079AD3F8E02042F4807235
:105AD000C3F8E0200222D3F8E03003F48073089387
