:020000040810E2
:100000000080041075181008391710083B171008E5
:100010003D1710083F171008411710080000000096
:10002000000000000000000000000000431710085E
:10003000451710080000000047171008491710085E
:10004000C5181008C5181008C5181008C5181008DC
:10005000C5181008C5181008C5181008C5181008CC
:10006000C5181008C5181008C5181008C5181008BC
:10007000C5181008C5181008C5181008C5181008AC
:10008000C5181008C5181008C5181008C51810089C
:10009000C5181008C5181008C5181008C51810088C
:1000A000C51810084D171008C5181008C5181008F5
:1000B000C5181008C5181008C5181008C51810086C
:1000C000C5181008C5181008C5181008C51810085C
:1000D000C5181008C5181008C5181008C51810084C
:1000E000C5181008C518100800000000C518100831
:1000F000C5181008C5181008C5181008C51810082C
:10010000C5181008C5181008C5181008C51810081B
:10011000C5181008C5181008C5181008C51810080B
:10012000C5181008C5181008C5181008C5181008FB
:10013000C5181008C5181008C5181008C5181008EB
:10014000C5181008C51810080000000000000000C5
:10015000C5181008C5181008C5181008C5181008CB
:10016000C5181008C5181008C5181008C5181008BB
:10017000C5181008C5181008C518100800000000A0
:10018000C5181008C5181008C5181008C51810089B
:10019000C5181008C5181008C5181008C51810088B
:1001A000C5181008C5181008C5181008C51810087B
:1001B000C5181008C5181008C5181008C51810086B
:1001C000C5181008C5181008C5181008C51810085B
:1001D000C5181008C5181008C5181008C51810084B
:1001E000C5181008C5181008C5181008C51810083B
:1001F000C5181008C5181008C5181008C51810082B
:10020000C5181008C5181008C5181008C51810081A
:10021000C5181008C5181008C5181008C51810080A
:10022000C5181008C5181008C5181008C5181008FA
:10023000C5181008C5181008C5181008C5181008EA
:10024000C5181008C5181008C5181008C5181008DA
:10025000C5181008C5181008C5181008C5181008CA
:10026000C5181008C5181008C5181008C5181008BA
:10027000C5181008C5181008C5181008C5181008AA
:10028000C5181008C5181008C5181008000000008F
:08029000C5181008C51810087C
:1002980010B5054C237833B9044B13B10448AFF3B8
:1002A80000800123237010BD4404001000000000EA
:1002B800C01A100808B5034B1BB103490348AFF334
:1002C800008008BD0000000048040010C01A100893
:1002D80038B50F4B0546187808B9012038BD0D4AC6
:1002E8004FF47A73B3FBF0F31068B0FBF3F000F04F
:1002F800BFF804460028F0D10F2DEED80246294653
:100308004FF0FF3000F072F8034B20461D60E5E720
:10031800000000100C0000100400001013B51F4C62
:100328001F4AD4F8D83043F48043C4F8D830D4F8FE
:10033800D83003F480430193019B136823F47F238F
:1003480023F4706343F401431360136843F001031B
:100358001360032000F038F800F0EEF9A3691149A2
:10036800A269C3F3032302F00F02CB5C03F01F035F
:10037800D8408B5C03F01F03D8400B4B18600B4B25
:1003880018600020FFF7A4FF044620B901F0E0F947
:10039800204602B010BD0124FAE700BF004402580D
:1003A80000440240D81A1008100000100C00001079
:1003B800034A044B11681B780B441360704700BF55
:1003C8006404001000000010074AD36823F4E063B7
:1003D8001B041B0C43F0BF63000243F4003300F41A
:1003E800E0600343D360704700ED00E0174B70B541
:1003F800DC68C4F30224C4F10705042D04F10403E6
:1004080028BF04254FF0FF36062B06FA05F38CBFEC
:10041800033C002421EA0303A34006FA04F422EA79
:100428000404002843EA0403A8BF00F160404FEA2F
:100438000313BCBF00F00F00054ADBB2AABF00F5EA
:100448006140135480F8003370BD00BF00ED00E038
:1004580014ED00E0002808DB0123420900F01F002A
:1004680003FA00F0014B43F82200704700E100E076
:100478000138B0F1807F0AD2064B074A5860F02154
:1004880082F823100020072298601A607047012024
:10049800704700BF10E000E000ED00E0044B1B686F
:1004A800C3F30313072B0CBF03200120704700BFC1
:1004B80000ED00E02DE9F04F85B00B68DFF8CCE1E6
:1004C80001934FF0B0490023019ADA4002D105B0F8
:1004D800BDE8F08F4FF0010C019A0CFA03FC1CEAFE
:1004E800020600F0BA804C6804F003024FEA4308A1
:1004F8000325571E05FA08F5012F6FEA050534D8BC
:10050800876807EA050ACF6807FA08F747EA0A077B
:100518008760476827EA0C0CC4F300179F4047EA36
:100528000C074760C76807EA050C8F6807FA08F7E1
:1005380047EA0C07022AC76019D14FEAD30A00EB31
:100548008A0A03F0070BDAF820704FEA8B0B4FF09A
:100558000F0C0CFA0BFC27EA0C0C0F6907FA0BF7C7
:1005680047EA0C07CAF8207001E0032ADAD10768C5
:1005780002FA08F23D40154314F4403F05606CD080
:10058800404DD5F8F42042F00202C5F8F420D5F821
:10059800F42023F0030505F1B04502F0020205F549
:1005A8008065039203F00307039AD5F808804FF09B
:1005B8000F0CBF000CFA07F228EA020C324A9042EC
:1005C8004DD002F5806290424BD002F58062904295
:1005D80049D002F58062904247D002F5806290428D
:1005E80045D002F58062904243D002F58062904285
:1005F80041D002F5806290423FD002F5806290427D
:100608003DD002F58062904214BF0A220922BA4006
:1006180042EA0C02AA60D9F80020E7026FEA060550
:100628004FF0B04754BF2A4032433A607A68A70275
:1006380054BF2A403243C9F80420DEF80420A70337
:1006480054BF2A403243CEF80420DEF80020E403E9
:1006580054BF2A403243CEF80020013334E7002249
:10066800D5E70122D3E70222D1E70322CFE704220C
:10067800CDE70522CBE70622C9E70722C7E708220C
:10068800C5E700BF0044025800000258C0000058E7
:10069800024A136818431060704700BF106502587B
:1006A80038B51E4C236823F0010318430D4620601B
:1006B800C2B9FFF7F3FE032813D1236923F001031E
:1006C8002361174B1A6942F004021A61BFF34F8F76
:1006D800BFF36F8F012D10D130BF1A6922F00402C9
:1006E8001A6138BD012A0AD1FFF7D8FE0128F8D1CE
:1006F800636923F002036361E3E720BFEDE7FFF7D7
:10070800CDFE03280BBF2369636923F0040323F09C
:1007180004030CBF23616361E3E700BF004802588C
:1007280000ED00E008B5FFF7B9FE032801D120BFAE
:1007380008BD40BFFBE70000464B1A6902F03802CB
:10074800102A10B500F08480182A0CD00AB142484B
:1007580010BD1A68414812F0200FF9D01B68C3F386
:10076800C103D840F4E7996A986ADA6A5C6BC0F307
:1007780005100028ECD007EE900A02F00102C4F33D
:10078800CC004243F8EEE76A07EE902A01F0030234
:10079800012AFAEEE97AB7EE006A02D00FD3022AEC
:1007A80048D01B6BC3F3080307EE103AB8EEC77ABC
:1007B80077EE277A77EE867A9FED296A37E01A680E
:1007C800920627D51968254A1B6BC1F3C101CA4097
:1007D80007EE102AF8EEC75AC3F3080385EEA67A87
:1007E80006EE903AF8EEE66A76EEA77A77EE867A23
:1007F800184B1B6BC3F34623013367EE877A07EE6A
:10080800103AF8EEC76A87EEA67AFCEEC77A17EEBA
:10081800900A9DE71B6BC3F3080307EE103AB8EE86
:10082800C77A77EE277A77EE867A9FED0E6A86EE9C
:10083800267ADDE71B6BC3F3080307EE103AB8EE20
:10084800C77A77EE277A77EE867A9FED076AEEE722
:1008580006487DE70044025800093D000090D00397
:100868000024744A0024744C20BCBE4B40787D019F
:10087800036A026A22F00102026270B54468826962
:100888000D6822F4803222F073022A438D6823F027
:1008980002032B431B4DA8420FD005F58065A842E3
:1008A8000BD005F57055A84207D005F58065A8421C
:1008B80003D005F58065A8421ED1CD6823F0080352
:1008C8002B43104DA84223F004030FD005F5806593
:1008D800A8420BD005F57055A84207D005F58065EC
:1008E800A84203D005F58065A84205D124F44075D7
:1008F800D1E9054634432C43446082614A68426327
:10090800036270BD00000140036A026A22F480722B
:10091800026270B54468C2690D6822F4803222F020
:1009280073022A438D6823F4007343EA0523164DA6
:10093800A84203D005F58065A8420DD1CD6823F4FF
:10094800006343EA0523104DA84223F480630ED0C8
:1009580005F58065A8420AD00C4DA84207D005F5D8
:100968008065A84203D005F58065A84206D124F425
:100978004055D1E90546344345EA04144460C26150
:100988004A68C263036270BD000001400040014034
:10099800036A026A22F48052026230B54468C2696E
:1009A8000D6822F0807222F4E64242EA05228D6840
:1009B80023F4005343EA05330E4DA8420FD005F542
:1009C8008065A8420BD005F57055A84207D005F5FB
:1009D8008065A84203D005F58065A84204D14D6919
:1009E80024F4804444EA85144460C2614A6802647D
:1009F800036230BD00000140036A026A22F48032BB
:100A0800026230B54468426D0D6822F4803222F0EB
:100A180070022A438D6823F4003343EA05430F4DDF
:100A2800A8420FD005F58065A8420BD005F5705592
:100A3800A84207D005F58065A84203D005F5806572
:100A4800A84204D14D6924F4803444EA0524446062
:100A580042654A688265036230BD00BF00000140FC
:100A6800036A026A22F48012026230B54468426D59
:100A78000D6822F0807222F4E04242EA05228D6875
:100A880023F4001343EA05530E4DA8420FD005F591
:100A98008065A8420BD005F57055A84207D005F52A
:100AA8008065A84203D005F58065A84204D14D6948
:100AB80024F4802444EA8524446042654A68C26577
:100AC800036230BD0000014090F83D30012B33D166
:100AD800022380F83D300368DA6842F00102DA60E8
:100AE800164A93421AD0B3F1804F17D0A2F57C4230
:100AF800934213D002F5806293420FD002F58062D0
:100B080093420BD002F57842934207D0A2F56C428B
:100B1800934203D002F59432934207D19968084A68
:100B28000A40062A06D0B2F5803F03D01A6842F080
:100B380001021A6000207047012070470000014040
:100B4800070001007047704770477047036870B529
:100B5800DD681E69B20704460DD5A9070BD56FF0ED
:100B680002021A619B69012202779A0775D0FFF782
:100B7800EAFF00232377730710D568070ED523688B
:100B88006FF004021A619B69022213F4407F2277F6
:100B9800204668D0FFF7D7FF0023237731070FD50A
:100BA8002A070DD523686FF008021A61DB69042251
:100BB8009B07227720465CD0FFF7C5FF00232377E9
:100BC800F10610D5EA060ED523686FF010021A61F7
:100BD800DB69082213F4407F227720464FD0FFF7C5
:100BE800B2FF00232377F30708D5E80706D5236863
:100BF8006FF001021A61204600F074FD16F4025FDE
:100C080008D0290606D523686FF402521A612046D7
:100C180000F0D1FBF20508D52B0606D523686FF442
:100C280080721A61204600F0C7FB700608D5690675
:100C380006D523686FF040021A612046FFF785FF4A
:100C4800B20622D5AB0620D523686FF020022046D5
:100C58001A61BDE8704000F0ADBBFFF773FF204696
:100C6800FFF772FF85E7FFF76DFF2046FFF76CFF80
:100C780092E7FFF767FF2046FFF766FF9EE7FFF75B
:100C880061FF2046FFF760FFABE770BD334A03689A
:100C9800904212D0B0F1804F0FD0A2F57C42904222
:100CA8000BD002F58062904207D002F58062904234
:100CB80003D002F57842904219D14A6823F07003B4
:100CC8001343264A90421DD0B0F1804F1AD0A2F5A6
:100CD8007C42904216D002F58062904212D002F512
:100CE800806290420ED002F5784290420AD01C4AA7
:100CF800904207D002F58062904203D002F58062EC
:100D0800904203D1CA6823F4407313434A6923F01D
:100D18008003134303608B68C3620B6883620F4BC5
:100D280098420FD003F5806398420BD003F57053B7
:100D3800984207D003F58063984203D003F5806397
:100D4800984201D10B690363012343610369DB07FF
:100D580042BF036923F001030361704700000140AB
:100D68000040014010B5044650B390F83D3003F000
:100D7800FF021BB980F83C2000F0FCFC022384F839
:100D88003D302068211DFFF781FF012384F848309A
:100D9800002084F83E3084F83F3084F8403084F8EE
:100DA800413084F8423084F8433084F8443084F881
:100DB800453084F8463084F8473084F83D3010BD1B
:100DC8000120FCE7036A026A22F01002026270B591
:100DD800446882690D6822F0807222F4E64242EA91
:100DE80005228D6823F0200343EA0513164DA84217
:100DF80003D005F58065A8420DD1CD6823F08003A6
:100E080043EA0513104DA84223F040030ED005F520
:100E18008065A8420AD00D4DA84207D005F5806527
:100E2800A84203D005F58065A84206D124F44065A0
:100E3800D1E90546344345EA8404446082614A683E
:100E48008263036270BD00BF0000014000400140A2
:100E580090F83C30012B70B505467AD00123082A5A
:100E680080F83C3042D004D8D2B1042A2DD00120D9
:100E780027E0102A4BD0142A5AD00C2AF7D1006840
:100E8800FFF786FD2B680969DA6942F40062DA61C6
:100E9800DA6922F48062DA61DA6942EA012234E02E
:100EA8000068FFF7E5FC2B6809699A6942F00802B7
:100EB8009A619A6922F004029A619A690A439A61CE
:100EC8000020002385F83C3070BD0068FFF77AFFEA
:100ED8002B6809699A6942F400629A619A6922F456
:100EE80080629A619A6942EA0122E8E70068FFF79E
:100EF8000BFD2B680969DA6942F00802DA61DA69E0
:100F080022F00402DA61DA690A43DA61D8E7006894
:100F1800FFF772FD2B6809695A6D42F008025A659D
:100F28005A6D22F004025A655A6D0A435A65C7E79A
:100F38000068FFF795FD2B6809695A6D42F4006255
:100F48005A655A6D22F480625A655A6D42EA012246
:100F5800ECE70220B8E7036A01F01F0110B501248D
:100F68008C4023EA04030362036A8A401A4302623C
:100F780010BD000010B5044629B990F83E30012B89
:100F880031D0012010BD042907D190F83F30012B42
:100F9800F7D1022380F83F3028E0082907D190F8DC
:100FA8004030012BEDD1022380F840301EE00C299F
:100FB80007D190F84130012BE3D1022380F841306A
:100FC80014E0102907D190F84230012BD9D102231F
:100FD80080F842300AE090F84330012BD1D1022347
:100FE80080F8433002E0022380F83E300122206876
:100FF800FFF7B1FF2368224A934219D002F58062B5
:10100800934215D002F57052934211D002F58062D6
:1010180093420DD002F58062934209D0B3F1804F1C
:101028000ED19968174A0A40062A25D10020A9E757
:101038005A6C42F400425A64114A9342EED1F0E7E6
:10104800114A9342EDD002F580629342E9D002F54D
:1010580080629342E5D002F578429342E1D0A2F54E
:101068006C429342DDD002F594329342D9D01A688B
:1010780042F001021A60D9E7B2F5803FF7D1D5E70F
:10108800000001400700010000040040FFF772BFA4
:1010980038B50446002200680D46FFF75CFF236858
:1010A800254A93420FD002F5806293420BD002F595
:1010B8007052934207D002F58062934203D002F542
:1010C800806293420DD1196A41F21112114208D17E
:1010D800196A40F24442114202BF5A6C22F400429B
:1010E8005A64196A41F21112114208D1196A40F280
:1010F8004442114202BF1A6822F001021A60012319
:101108001DB984F83E30002038BD042D02D184F882
:101118003F30F8E7082D02D184F84030F3E70C2D72
:1011280002D184F84130EEE7102D0CBF84F842302C
:1011380084F84330E7E700BF00000140FFF7A8BF8D
:10114800036A01F00F0110B504248C4023EA04035C
:101158000362036A8A401A43026210BD10B504464E
:1011680029B990F84430012B1DD0012010BD042965
:1011780007D190F84530012BF7D1022380F845308C
:1011880014E0082907D190F84630012BEDD102234D
:1011980080F846300AE090F84730012BE5D1022369
:1011A80080F8473002E0022380F8443004222068A7
:1011B800FFF7C6FF23685A6C42F400425A64164A85
:1011C80093421AD0B3F1804F17D0A2F57C429342D4
:1011D80013D002F5806293420FD002F580629342E9
:1011E8000BD002F57842934207D0A2F56C429342A5
:1011F80003D002F59432934207D19968074A0A400E
:10120800062A06D0B2F5803F03D01A6842F00102E0
:101218001A600020AAE700BF000001400700010093
:1012280038B50446002200680D46FFF789FF236899
:10123800196A41F21112114208D1196A40F2444266
:10124800114202BF5A6C22F400425A64196A41F2F0
:101258001112114208D1196A40F24442114202BFE8
:101268001A6822F001021A6001231DB984F844307B
:10127800002038BD042D02D184F84530F8E7082D48
:101288000CBF84F8463084F84730F1E7FFF766BFB3
:10129800FFF7C6BF90F83C30012B70B54FF0020342
:1012A8003DD080F83D301F4D03680122AB4280F8E5
:1012B8003C205A689C6802D01B4EB34203D14E684A
:1012C80022F4700232430E6822F070023243AB42BD
:1012D8005A6019D0B3F1804F16D0144A934213D0F4
:1012E80002F5806293420FD002F5806293420BD0E0
:1012F80002F57842934207D0A2F56C42934203D09C
:1013080002F59432934204D1896824F080020A439A
:101318009A60012380F83D30002380F83C3018465D
:1013280070BD00BF000001400004014000040040FF
:1013380090F83C30012B10B538D0CB688A681C4C2B
:1013480023F4407313434A6823F4806313430A6801
:1013580023F4006313430A6923F4805313434A694F
:1013680023F4005313438A6A23F4804313438A699E
:1013780023F4702343EA02430268A24203D004F52F
:101388008064A2420CD14C6A23F4700343EA0453EC
:10139800CC69096A23F08073234323F000730B435D
:1013A8005364002380F83C30184610BD0220FCE747
:1013B8000000014070477047704700006A4C00B554
:1013C800D4F8E03043F00073C4F8E030D4F8E030EB
:1013D8009BB003F0007301200193019BFFF758F9BC
:1013E800FFF7A0F9012202210020FFF759F95F4B0E
:1013F8001B68C3F30313072B5D4B0BBFD3F8042102
:10140800D3F8142142F0010242F001020CBFC3F8E4
:101418000421C3F81421FEF781FFD4F8D43043F037
:101428000103C4F8D430D4F8D43003F00103049392
:10143800049BD4F8E03043F48063C4F8E030D4F877
:10144800E03003F480630293029BD4F8E03043F465
:101458000073C4F8E030D4F8E030464C002503F4BB
:10146800007303931C22294608A8039B0795CDE91E
:10147800055500F049FA2C2229460FA800F044FA35
:101488003D4A256140F2E733C4E90023202140F2B8
:101498008F13C4E9021320460A23C4E90535FFF770
:1014A80061FC08B172B6FEE7CDE90500079005A911
:1014B8002046FFF7EFFE024608B172B6FEE760234A
:1014C800CDE90830CDE90A00CDE90C000E9008A955
:1014D8002046FFF7BDFC08B172B6FEE7042208A952
:1014E8002046FFF7B5FC08B172B6FEE7082208A946
:1014F8002046FFF7ADFC08B172B6FEE74FF4005383
:10150800CDE914304FF00073CDE90F00CDE911009B
:1015180013901690CDE9173019900FA92046FFF7C0
:1015280007FF054608B172B6FEE7204600F046F907
:101538002046FFF7C9FA29462046FFF7A7FD0421F0
:101548002046FFF7A3FD08212046FFF79FFD294607
:101558002046FFF79BFE04212046FFF797FE08214F
:101568002046FFF793FEFEE70044025800ED00E036
:1015780000640258680400100000014070B5584C1F
:101588000D462268C723052800F29680DFE800F0A0
:1015980003234352677ED362002155635048E360BA
:1015A800FFF774FD00214E48FFF770FE2368002204
:1015B8009A6304214A48FFF769FD04214848FFF768
:1015C80065FE08214648FFF7B9FD08214448BDE8F3
:1015D8007040FFF75DBED362002155634048E36069
:1015E800FFF754FD00213E48FFF750FE04213C4818
:1015F800FFF7A4FD04213A48FFF74AFE23680022BA
:10160800DA6308213648FFF741FD08213448BDE870
:101618007040FFF73BBE0026D36231465663304820
:10162800E360FFF733FD31462D48FFF72FFE2368AF
:101638009D63BEE7D36200212948E360FFF77EFD82
:1016480000212748FFF724FE236825489D630421CD
:10165800FFF71CFD04212248FFF718FECEE70026FD
:10166800D362314656631E48E360FFF70FFD3146EB
:101678001B48FFF70BFE04211948FFF75FFD042103
:101688001748FFF705FE2368DD63BAE7D362002138
:101698001348E360FFF752FD00211148FFF7F8FDFA
:1016A80023680F4800229A630421FFF7EFFC042106
:1016B8000B48FFF7EBFDE6E7D36200210848E3603B
:1016C800FFF73CFD00210648FFF7E2FD042104482E
:1016D800FFF734FD04210248FFF7DAFD71E700BF88
:1016E8006804001010B50E4C2078052814D80D4B4E
:1016F8001988FFF743FF2378013323700A4A0B49FF
:1017080013880968012B0B6305D9013B1380054A2F
:1017180013880F33138010BD0628EFD10023ECE7A0
:1017280060040010080000100A000010680400108F
:10173800FEE7FEE7FEE7FEE7FEE770477047704703
:10174800FEF736BE0148FFF701BA00BF6804001073
:10175800074BD3F8F42042F00202C3F8F420D3F880
:10176800F43082B003F002030193019B02B070478A
:101778000044025807B50F4B02689A4217D10E4B26
:10178800D3F8F02042F00102C3F8F020D3F8F0308B
:10179800002203F00103019311461920019BFEF773
:1017A80025FE192003B05DF804EBFEF753BE03B025
:1017B8005DF804FB000001400044025830B50446BF
:1017C80089B01422002103A800F09EF822681A4B61
:1017D8009A422ED1194B1A48D3F8E02042F480627D
:1017E800C3F8E020D3F8E02002F480620192019A65
:1017F800D3F8E02042F40072C3F8E020D3F8E030D8
:1018080003F400730293029B02250323012403A916
:10181800CDE903350794FEF74DFE4FF47063CDE92B
:10182800033503A9002307480794CDE90533FEF7DC
:1018380041FE09B030BD00BF00000140004402581D
:101848000028025800240258074BD3F8882042F495
:101858007002C3F888201A6942F010021A614FF02A
:1018680001629A60704700BF00ED00E0DFF834D0F5
:10187800FFF7EAFF0C480D490D4A002302E0D4584F
:10188800C4500433C4188C42F9D30A4A0A4C0023C2
:1018980001E013600432A242FBD300F011F8FFF715
:1018A8008DFD7047008004100000001044040010F3
:1018B800F81A100844040010D8040010FEE70000CD
:1018C80070B50D4E0D4D761BB61006D000240134B0
:1018D80055F8043B9847A642F9D1094E094D761BA5
:1018E80000F0EAF8B61006D00024013455F8043B9D
:1018F8009847A642F9D170BDEC1A1008EC1A1008E6
:10190800F41A1008EC1A1008F0B4860743D0541ED5
:10191800002A3ED0CAB2034602E014F1FF3438D39D
:1019280003F8012B9D07F8D1032C2BD9CDB245EA3A
:1019380005250F2C45EA054516D9A4F110073F09DE
:1019480003F1200606EB071603F1100242E90455DD
:1019580042E902551032B242F8D104F00F040137BF
:10196800032C03EB07130DD91E462246043A032A1B
:1019780046F8045BFAD8221F22F00302043213440B
:1019880004F003042CB1C9B21C4403F8011B9C42A7
:10199800FBD1F0BC704714460346C5E7024B13B1B0
:1019A800024800F005B8704700000000C51910088B
:1019B800002301461A46184600F01EB838B50A4CEE
:1019C8000A4D641BA4100AD004F18043013B05EBC7
:1019D8008305013C55F804399847002CF9D1BDE836
:1019E800384000F06FB800BFF81A1008F41A100851
:1019F800704700BF704700BF2DE9F8432B4D0646DE
:101A0800286898460F469146FFF7F2FF284B1C6856
:101A1800D4F84831002B3DD05A681F2A0DDC02F15A
:101A2800010C16BB0232C3F804C0286843F82270C0
:101A3800FFF7E0FF0020BDE8F8831E4B7BB34FF4AF
:101A4800C870AFF30080034648B3D4F8482100219A
:101A5800C0E900214FF0010CC4F848010A46C0F85B
:101A68008811C0F88C11002EDCD003EB8201012410
:101A7800C1F88890D3F8880194402043022EC3F817
:101A88008801C1F80881CDD1D3F88C110C43C3F873
:101A98008C41C7E704F5A673C4F84831BCE7286849
:101AA800FFF7A8FF4FF0FF30C5E700BF4004001064
:101AB800E81A100800000000F8B500BFF8BC08BC20
:101AC8009E467047F8B500BFF8BC08BC9E467047F4
:101AD80000000000010203040102030406070809CC
:041AE80018000010D2
:081AEC00A5191008BD02100845
:041AF400990210083B
:101AF8000100000010000000190006000090D0034B
:101B08000090D00300000000000000000403001053
:101B18006C030010D4030010000000000000000057
:101B280000000000000000000000000000000000AD
:101B3800000000000000000000000000000000009D
:101B4800000000000000000000000000000000008D
:101B5800000000000000000000000000000000007D
:101B6800000000000000000000000000000000006D
:101B7800000000000000000000000000000000005D
:101B8800000000000000000000000000000000004D
:101B9800000000000000000000000000000000003D
:101BA800000000000000000000000000000000002D
:101BB80001000000000000000E33CDAB34126DE6CA
:101BC800ECDE05000B000000000000000000000033
:101BD80000000000000000000000000000000000FD
:101BE80000000000000000000000000000000000ED
:101BF80000000000000000000000000000000000DD
:101C080000000000000000000000000000000000CC
:041F3800B4040010DD
:040000050810187552
:00000001FF
