:020000040810E2
:1000000000800410DD251008E9241008F1241008F0
:10001000F924100801251008092510080000000027
:1000200000000000000000000000000001C61008F1
:10003000112510080000000051C81008CDBA1008A2
:100040002D2610082D2610082D2610082D26100804
:100050002D2610082D2610082D2610082D261008F4
:100060002D2610082D2610082D2610082D261008E4
:10007000212510082D2610082D2610082D261008E1
:100080002D2610082D2610082D2610082D261008C4
:100090002D2610082D2610082D2610082D261008B4
:1000A0002D2610082D2610082D2610082D261008A4
:1000B0002D2610082D261008352510082D2610088D
:1000C0002D2610082D2610082D2610082D26100884
:1000D0002D261008492510082D2610082D26100859
:1000E0002D2610082D261008000000002D261008CF
:1000F0002D2610082D2610082D2610082D26100854
:100100002D2610082D2610085D2510082D26100814
:100110002D2610082D2610082D2610082D26100833
:100120002D2610082D2610082D2610082D26100823
:100130002D2610082D2610082D2610082D26100813
:100140002D2610082D2610080000000000000000D9
:100150002D2610082D2610082D2610082D261008F3
:100160002D2610082D2610082D2610082D261008E3
:100170002D2610082D2610082D261008000000003E
:100180002D2610082D2610082D2610082D261008C3
:100190002D2610082D2610082D2610082D261008B3
:1001A0002D2610082D2610082D2610082D261008A3
:1001B0002D2610082D2610082D2610082D26100893
:1001C0002D2610082D2610082D2610082D26100883
:1001D0002D2610082D2610082D2610082D26100873
:1001E0002D2610082D2610082D2610082D26100863
:1001F0002D2610082D2610082D2610082D26100853
:100200002D2610082D2610082D2610082D26100842
:100210002D2610082D2610082D2610082D26100832
:100220002D2610082D2610082D2610082D26100822
:100230002D2610082D2610082D2610082D26100812
:100240002D2610082D2610082D2610082D26100802
:100250002D2610082D2610082D2610082D261008F2
:100260002D2610082D2610082D2610082D261008E2
:100270002D2610082D2610082D2610082D261008D2
:100280002D2610082D2610082D261008000000002D
:080290002D2610082D26100890
:1002A00010B5054C237833B9044B13B10448AFF3B0
:1002B00000800123237010BD8801001000000000A1
:1002C000CCFA100808B5034B1BB103490348AFF340
:1002D000008008BD000000008C010010CCFA10085E
:1002E000034613F8012B002AFBD1181A0138704776
:1002F00001F0FF01102A2BDB10F0070F08D010F8D7
:10030000013B013A8B422DD010F0070F42B3F6D1DA
:10031000F0B441EA012141EA014122F007047FF0F3
:1003200000070023F0E80256083C85EA010586EA4A
:10033000010685FA47F5A3FA87F586FA47F6A5FA86
:1003400087F68EB9EED1F0BC01F0FF0102F0070292
:1003500032B110F8013B013A83EA010313B1F8D13D
:100360000020704701387047002D06BF354603381E
:10037000073815F0010F07D1013015F4807F02BF57
:10038000013015F4C03F0130F0BC0138704700BFA8
:1003900053B94AB9002908BF00281CBF4FF0FF31EC
:1003A0004FF0FF3000F06AB9ADF1080C6DE904CEF2
:1003B00000F006F8DDF804E0DDE9022304B0704740
:1003C0002DE9F047089D0C46002B4ED194468C45F4
:1003D0008646B2FA82F262D94AB1C2F12003914054
:1003E00020FA03F30CFA02FC194300FA02FE4FEA6A
:1003F0001C471FFA8CF6B1FBF7F44FEA1E4307FBCC
:10040000141143EA014304FB06F199420AD91CEB9B
:10041000030304F1FF3080F01281994240F20F8112
:10042000023C6344591A1FFA8EF3B1FBF7F007FB45
:10043000101143EA014300FB06F69E420AD91CEB69
:10044000030300F1FF3180F0FC809E4240F2F9800E
:10045000634402389B1B40EA044000211DB1D34095
:100460000022C5E90032BDE8F0878B4205D90DB105
:10047000C5E9000100210846F5E7B3FA83F1002938
:1004800046D1A34202D39042C0F0F080861A64EBBA
:1004900003030120002DE6D0C5E90063E3E7002A4D
:1004A00040F09080A1EB0C044FEA1C481FFA8CF737
:1004B0000121B4FBF8F64FEA1E4308FB164443EA59
:1004C000044307FB06F0984208D91CEB030306F12E
:1004D000FF3402D2984200F2CD8026461C1A1FFA41
:1004E0008EF3B4FBF8F008FB104443EA044300FB2E
:1004F00007F79F4208D91CEB030300F1FF3402D237
:100500009F4200F2B0802046DB1B40EA0640A5E790
:10051000C1F120068B4022FA06F71F4320FA06FCA1
:1005200004FA01F343EA0C03F44000FA01F8380C32
:100530004FEA1349B4FBF0FE1FFA87FC00FB1E4490
:1005400049EA04440EFB0CF9A14502FA01F20AD96A
:100550003C190EF1FF3A80F08480A14540F2818081
:10056000AEF1020E3C44A4EB09041FFA83F9B4FB7C
:10057000F0F300FB134449EA044403FB0CFCA445DC
:1005800007D93C1903F1FF3067D2A44565D9023B76
:100590003C4443EA0E40A0FB0293A4EB0C049C42B3
:1005A000CE469C4651D34ED055B1B8EB0E0364EB0A
:1005B0000C0404FA06F6CB401E43CC40C5E90064A7
:1005C000002150E7C2F1200320FA03F10CFA02FCEB
:1005D00024FA03F394400C434FEA1C4800FA02FE4D
:1005E0001FFA8CF7B3FBF8F008FB1031230C43EA39
:1005F000014300FB07F1994208D91CEB030300F10A
:10060000FF362CD299422AD9023863445B1AA4B22D
:10061000B3FBF8F108FB113344EA034401FB07F391
:10062000A34208D91CEB040401F1FF3613D2A34204
:1006300011D902396444E41A41EA004139E7044619
:10064000F0E6084606E7C845AED2B9EB020E63EB0A
:10065000070C0138A8E73146EDE7034699E7304635
:10066000D4E7D6467FE7634402384DE70646234683
:1006700008460FE7023E634430E700BF704700BF03
:1006800080B582B000AF78607B681B68494A9342AE
:1006900001D102F047F87B681B68474A934240F05B
:1006A0008480464B1B889BB2482B07D0434B1B884A
:1006B0009BB2482B02D8414B1B8802E03F4B0022E3
:1006C0001A803E4B1B889BB201339AB23B4B1A8077
:1006D0003B4B1B78012B17D100213A4807F0ECFC6B
:1006E0000021384808F034FE0421364807F0E4FCC5
:1006F0000421344808F02CFE0821324807F0DCFCC5
:100700000821304808F024FE2D4B1B78002B4CD1DB
:100710002A4B1B889BB2184600F058F8284B9B7850
:10072000F42B14D1012000F01DFE274B1B684FF461
:10073000FA72DA62244B4FF4FA72DA60214B1B68CA
:1007400042F21072DA621F4B42F21072DA601C4BF6
:100750009B78DC2B12D1022000F004FE1A4B1B68A0
:10076000C822DA62184BC822DA60164B1B684FF4B5
:10077000FA52DA62134B4FF4FA52DA60104B9B785C
:10078000C42B12D1032000F0EDFD0F4B1B68782223
:10079000DA620D4B7822DA600A4B1B684FF4FA528A
:1007A000DA62084B4FF4FA52DA6000BF0837BD46F0
:1007B00080BD00BF000C004000080040A4010010F4
:1007C000B0040010E40400103005001080B582B0C1
:1007D00000AF0346FB80FA88244B1B68244951F87C
:1007E00022205A630021214807F058FB00211F48AE
:1007F00008F0ECFCFB8803F118011E4B83FB01237E
:100800001A11CB17D21A1346DB001344DB00CA1AA5
:10081000164B1B68164951F822209A63042113488D
:1008200007F03CFB0421114808F0D0FCFB8803F1E1
:100830003001104B83FB01231A11CB17D21A134638
:10084000DB001344DB00CA1A084B1B68084951F847
:100850002220DA630821054807F020FB082103481D
:1008600008F0B4FC00BF0837BD4680BDE4040010AA
:1008700000000010398EE33890B58DB000AF002332
:100880007B6007F1080300221A605A609A60DA6000
:100890001A615A619A610023FB85002387F82D3085
:1008A0008E4B1B684FF47A7118460BF0E8FA03463A
:1008B000002B40F0A2818A4B1B78184600F052FDB5
:1008C0004FF48072002187480EF00EFC854A864B5B
:1008D00003CB1060516019889B7811819372814815
:1008E000FFF7FEFC03469AB264237E497F4808F076
:1008F0002CFF64200BF0F5F97D497E480EF01CFCBE
:10090000B862BB6A002B02D0012387F82D3097F81C
:100910002D30002B58D14FF48072002171480EF019
:10092000E3FB704A704B03CB1060516019889B78D1
:10093000118193726B48FFF7D3FC03469AB264238C
:1009400068496A4808F001FF64200BF0CAF9684959
:1009500068480EF0F1FBB862BB6A002B25D001237A
:1009600087F82D304FF4807200215E480EF0BCFBFA
:100970005C4A614B144607CB20606160A2601A8814
:100980009B78A281A3735748FFF7AAFC03469AB24B
:1009900064235449554808F0D8FE64200BF0A1F9AF
:1009A000564957480EF0C8FBB86264200BF099F91D
:1009B000544950480EF0C0FBB862BB6A002B2DD0E2
:1009C000012387F82D3029E097F82D30012B25D110
:1009D0004FF48072002143480EF086FB414A464B9B
:1009E000144607CB20606160A2601A889B78A281C0
:1009F000A3733C48FFF774FC03469AB26423394959
:100A00003A4808F0A2FE64200BF06BF93B493C48E1
:100A10000EF092FBB862BB6A002B7BD1FB8D642B7E
:100A200004D1394B1B78002B00F0C980FB8D022BC1
:100A300004D1354B1B78012B00F0C38064200BF0F0
:100A400050F932492B480EF077FBB862BB6A002B95
:100A50003FF45DAF4FF48072002122480EF044FB5A
:100A6000204A214B03CB1060516019889B7811817B
:100A700093721C48FFF734FC03469AB26423194969
:100A80001A4808F062FE64200BF02BF91849194847
:100A90000EF052FBB862BB6A002B0BD01A4B1B78CE
:100AA000002B07D1FB8D0133FB8541F270700BF0F9
:100AB00018F909E0BB6A002B06D0134B1B78012BF9
:100AC00002D1FB8D0133FB8511490A480EF034FB3E
:100AD000B862BB6A002B76D119E700BF98060010F8
:100AE000A8040010A8010010E4FA10087C0500100A
:100AF000F0FA1008A8030010FCFA10080CFB10080C
:100B0000A802001018FB1008A601001028FB10080E
:100B100038FB100800BF4FF4807200213A480EF0F5
:100B2000E3FA2E21B86A0EF0E7FAB862BB6A002B2E
:100B30004BD02C21B86A0EF0DFFAB862BB6A002BEA
:100B400045D03B1D1222B96A18460EF0E2FA002386
:100B5000FB753B1D2C2118460EF0CEFA78627B6A9D
:100B6000002B0AD07B6A5C1C786AFFF7B9FB03464E
:100B70001A462146786A0EF09DFA3B1D1846FFF78B
:100B8000AFFB02463B1D194620480EF06DFB204B83
:100B90001B6818460BF0BEF90023FB851D4B1B7824
:100BA0000133DAB21B4B1A701A4B1B780B2B02D98C
:100BB000184B03221A70184B01221A7020E000BF54
:100BC00006E000BF04E000BF02E000BF00E000BF9D
:100BD0000F4B1B6818460BF09DF90023FB850D4B4E
:100BE0001B780133DAB20B4B1A700A4B1B780B2BB4
:100BF00005D9084B03221A7001E000BF00E000BFD6
:100C00003437BD4690BD00BFA8010010B3040010EA
:100C10009806001020010010A6010010B0B584B0A5
:100C200002AF0023FB80B94BB94A92E80300186079
:100C30000433198002330A0C1A70B448FFF750FBD2
:100C400003469AB26423B149B24808F07EFD4FF4DE
:100C500080720021AD480EF047FA4FF480720021F7
:100C6000AD480EF041FAAB4B1B6820221A62A9482E
:100C700008F0F9FDBB1D642200924FF48072A64972
:100C8000A4480AF055FDA14BA44A07CA03C31A8021
:100C90000233120C1A709D48FFF722FB03469AB2EA
:100CA00064239A499B4808F050FD4FF4807200215C
:100CB00096480EF019FA4FF48072002196480EF013
:100CC00013FA944B1B6820221A62924808F0CBFD5D
:100CD000BB1D642200924FF480728F498D480AF048
:100CE00027FD8A4B8E4A07CA83E807008748FFF72B
:100CF000F7FA03469AB264238449864808F025FD32
:100D00004FF48072002181480EF0EEF94FF48072AA
:100D1000002181480EF0E8F97E4B1B6820221A6200
:100D20007C4808F0A0FDBB1D642200924FF4807245
:100D3000794978480AF0FCFC744A7A4B14460FCB88
:100D400007C423707148FFF7CBFA03469AB26423B5
:100D50006E49704808F0F9FC4FF4807200216B482E
:100D60000EF0C2F94FF4807200216B480EF0BCF90E
:100D7000684B1B6820221A62664808F074FDBB1D90
:100D8000642200924FF48072634962480AF0D0FCFA
:100D90005E4A654B14461D460FCD0FC40FCD0FC4E0
:100DA00095E803002060043421705848FFF798FA52
:100DB00003469AB264235549564808F0C6FC4FF4DE
:100DC0008072002151480EF08FF94FF4807200219B
:100DD00051480EF089F94F4B1B6820221A624D488A
:100DE00008F041FDBB1D642200924FF480724A4915
:100DF00048480AF09DFC454A4C4B14460FCB07C4AB
:100E000023704248FFF76CFA03469AB264233F49C5
:100E1000404808F09AFC4FF4807200213B480EF0E5
:100E200063F94FF4807200213B480EF05DF9394BB5
:100E30001B6820221A62374808F015FDBB1D64228A
:100E400000924FF48072344932480AF071FC2F4A04
:100E5000374B14461D460FCD0FC495E80F0007C44D
:100E6000238002341B0C23702848FFF739FA03460D
:100E70009AB264232549274808F067FC4FF4807232
:100E8000002122480EF030F94FF4807200212248F0
:100E90000EF02AF91F4B1B6820221A621D4808F029
:100EA000E2FCBB1D642200924FF480721A4919487B
:100EB0000AF03EFC154A1F4B14461D460FCD0FC4C9
:100EC00095E8070084E807001048FFF709FA034691
:100ED0009AB264230D490F4808F037FC4FF4807232
:100EE00000210A480EF000F94FF4807200210A48F0
:100EF0000EF0FAF8074B1B6820221A62054808F02A
:100F0000B2FCBB1D6422009216E000BFA8010010D5
:100F100044FB10087C050010A80200104CFB1008D0
:100F200058FB100864FB100874FB10089CFB1008A9
:100F3000ACFB1008CCFB10084FF48072B549B648E2
:100F40000AF0F6FBB54AB64B14461D460FCD0FC44A
:100F500095E8070003C42270B048FFF7C1F90346C3
:100F60009AB26423AD49AC4808F0EFFB4FF48072AD
:100F70000021AA480EF0B8F84FF480720021A5486D
:100F80000EF0B2F8A44B1B6820221A62A24808F0A7
:100F90006AFCBB1D642200924FF480729D499E48FA
:100FA0000AF0C6FB9D4A9F4B14461D460FCD0FC449
:100FB00095E80F0007C423709848FFF791F903469E
:100FC0009AB264239549944808F0BFFB4FF48072AD
:100FD000002192480EF088F84FF4807200218D486D
:100FE0000EF082F88C4B1B6820221A628A4808F0A7
:100FF0003AFCBB1D642200924FF4807285498648FA
:101000000AF096FB854A884B14461D460FCD0FC447
:101010000FCD0FC42B6823708048FFF761F903469A
:101020009AB264237D497C4808F08FFB4FF48072AC
:1010300000217A480EF058F84FF48072002175486C
:101040000EF052F8744B1B6820221A62724808F0A6
:101050000AFCBB1D642200924FF480726D496E48F9
:101060000AF066FB6D4A714B14461D460FCD0FC446
:101070000FCD0FC42B6823706848FFF731F9034682
:101080009AB264236549644808F05FFB4FF48072AC
:10109000002162480EF028F84FF4807200215D486C
:1010A0000EF022F85C4B1B6820221A625A4808F0A6
:1010B000DAFBBB1D642200924FF4807255495648FA
:1010C0000AF036FB554A5A4B14461D460FCD0FC445
:1010D00095E80F0084E80F005048FFF701F9034638
:1010E0009AB264234D494C4808F02FFB4FF48072AC
:1010F00000214A480DF0F8FF4FF480720021454866
:101100000DF0F2FF444B1B6820221A62424808F09F
:10111000AAFBBB1D642200924FF480723D493E48F9
:101120000AF006FB3D4A434B14461D460FCD0FC443
:101130000FCD0FC42B6823803848FFF7D1F8034642
:101140009AB264233549344808F0FFFA4FF48072AC
:10115000002132480DF0C8FF4FF4807200212D4865
:101160000DF0C2FF2C4B1B6820221A622A4808F09F
:101170007AFBBB1D642200924FF4807225492648F9
:101180000AF0D6FA254A2C4B14461D460FCD0FC443
:1011900095E80F0007C423802048FFF7A1F8034615
:1011A0009AB264231D491C4808F0CFFA4FF48072AC
:1011B00000211A480DF098FF4FF480720021154865
:1011C0000DF092FF144B1B6820221A62124808F09F
:1011D0004AFBBB1D642200924FF480720D490E48F9
:1011E0000AF0A6FA0D4B154A07CA83E807000B4818
:1011F000FFF776F803469AB264230849064808F0D8
:10120000A4FA4FF48072002104480DF06DFF034BE7
:1012100016E000BFA80200107C050010A801001015
:10122000E8FB100804FC100824FC100848FC100817
:101230006CFC10088CFC1008B0FC1008D0FC1008E6
:10124000194A92E8030083E803001848FFF748F8BA
:1012500003469AB264231549154808F076FA4FF40C
:101260008072002111480DF03FFF4FF48072002181
:1012700010480DF039FF0E4B1B6820221A620C48F3
:1012800008F0F1FABB1D642200924FF48072094904
:1012900007480AF04DFA084906480DF04DFF00BF17
:1012A0000837BD46B0BD00BFDCFC1008A801001027
:1012B0007C050010A8020010E4FC100880B584B082
:1012C00002AF0023FB8040F6EA3300931F4B00225D
:1012D0001F4920480DF0CEFE1E48FFF701F80346D7
:1012E0009AB264231B491C4808F02FFA4FF480720D
:1012F000002118480DF0F8FE4FF4807200211748C5
:101300000DF0F2FE144B1B6820221A62124808F0FE
:10131000AAFABB1D642200924FF480720F490E4856
:101320000AF006FA4FF4807200210C480DF0DCFE42
:101330000B490A480DF000FF4FF480720749064838
:101340000AF0F8FA00BF0837BD4680BDF0FC10086F
:1013500000FD1008A80100107C050010A802001074
:1013600024FD100880B483B000AF78607B68012B47
:1013700038D15B4BDD2283F82320594B4D2283F873
:101380002420574B632283F82520554B632283F892
:101390002620534B012283F82720514BF32283F858
:1013A00028204F4B202283F82A204D4B202283F8FF
:1013B00029204B4B102283F83020494B632283F8BD
:1013C0002C20474B632283F82D20454B042283F8C1
:1013D0002B20434B012283F82E20414B022283F81D
:1013E0002F2077E07B68022B38D13D4B012283F818
:1013F00023203B4B162283F82420394B632283F8A9
:101400002520374B632283F82620354B052283F8AD
:101410002720334BDB2283F82820314B212283F80D
:101420002A202F4B212283F829202D4B162283F8C6
:1014300030202B4B632283F82C20294B632283F826
:101440002D20274B0A2283F82B20254B012283F8DD
:101450002E20234B022283F82F203BE07B68032BB6
:1014600038D11F4B012283F823201D4B552283F8CE
:1014700024201B4B632283F82520194B632283F819
:101480002620174B092283F82720154BC32283F807
:101490002820134B212283F82A20114B212283F884
:1014A00029200F4B162283F830200D4B632283F83E
:1014B0002C200B4B632283F82D20094B092283F843
:1014C0002B20074B012283F82E20054B022283F8A4
:1014D0002F2000BF00BF0C37BD465DF8047B70476E
:1014E000B0040010B0B58AB000AF002387F82730F1
:1014F0003B1D1522002118460DF0F6FD3A4B1B78D6
:101500003A1D1146184600F039F9034687F827308E
:10151000364B1B684FF47A7118460AF0B0FC03464C
:10152000002B5CD197F827300022314931480DF06B
:10153000A1FD0AF02FFB034603F57A733B621EE020
:101540002C48FEF7CDFE03469AB2642329492A4867
:1015500008F0FBF80AF01EFB02463B6A934205D2F4
:10156000224B1B6818460AF0D5FC39E00AF012FB42
:10157000F861FB6903F5FA7318460AF0CDFB3E21CA
:101580001E480DF0B9FD0346002BD9D04FF48072F0
:10159000002118480DF0A8FD164B1C463D1D0FCD2F
:1015A0000FC495E803002060043421701148FEF751
:1015B00097FE03469AB264230E490F4808F0C5F817
:1015C0004FF4807200210B480DF08EFD074B1B6815
:1015D00018460AF09FFC0A200AF083FB00E000BFD7
:1015E0002837BD46B0BD00BF20010010980600108E
:1015F00034FD1008A80100107C050010A80300109D
:1016000080B582B000AF4FF480737B600023FB7025
:10161000164B1B684FF47A7118460AF030FC0346EB
:10162000002B1ED17B680022114912480DF022FDCB
:101630001048FEF755FE03469AB264230D490E4842
:1016400008F083F84FF4807200210A480DF04CFD39
:10165000064B1B6818460AF05DFC01200AF041FBAE
:1016600000E000BF0837BD4680BD00BF98060010EF
:1016700048FD1008A80100107C05001080B582B05C
:1016800000AF78600B467B80064A7B881380054B51
:101690001B88DBB2184600F007F800BF0837BD46CC
:1016A00080BD00BFAA04001080B586B000AF03461D
:1016B000FB71FB799AB22E4B1B889A4206D3FB79B9
:1016C0009AB22B4B1B88D31A9BB208E0FB799AB2D3
:1016D000274B1B88D31A9BB203F580739BB2FB8107
:1016E0004FF48072002123480DF0FEFC0023FB82A2
:1016F00017E01F4B1B881A461F4B9B5C7B73FB8AB2
:101700001C497A7BCA541A4B1B8801335A42DBB2FC
:10171000D2B258BF53429AB2154B1A80FB8A01339A
:10172000FB82FA8AFB899A42E3D3114B1B88052B73
:101730001AD900233B6114E00E4A3B6913441B781D
:10174000AA2B0BD13B690B4A1344094A1288D2B227
:101750001146184600F0E6F800BF05E03B6901338A
:101760003B613B69132BE7DD00BF1837BD4680BDE9
:10177000AC040010A8030010A802001080B586B0C9
:1017800000AF03463960FB710023FB75FB79013B19
:101790000B2B4DD801A252F823F000BF35181008CA
:1017A00035181008CD171008D7171008E1171008C2
:1017B000EB171008F5171008FF1710080918100884
:1017C00013181008271810081D1810084B4B3B6100
:1017D0002023FB752FE04A4B3B610223FB752AE077
:1017E000484B3B610223FB7525E0474B3B610223DD
:1017F000FB7520E0454B3B610123FB751BE0444B2F
:101800003B610123FB7516E0424B3B610123FB75F5
:1018100011E0414B3B610223FB750CE03F4B3B6108
:101820000123FB7507E03E4B3B610223FB7502E0A1
:1018300000235FE000BF00237B737B7B5A1C7A731D
:101840001A463B681344AA221A707B7B5A1C7A738F
:101850001A463B681344BB221A707B7B5A1C7A736E
:101860001A463B681344FA791A707B7B5A1C7A73C8
:101870001A463B681344FA7D1A707B7B3A6813441E
:10188000FA7D396918460DF0EFFC7A7BFB7D134435
:101890007B730023FB730223BB7309E0BB7B3A68B5
:1018A00013441A78FB7B5340FB73BB7B0133BB7340
:1018B000BA7B7B7B9A42F1D37B7B5A1C7A731A46A4
:1018C0003B681344FA7B1A707B7B013B3A681344F4
:1018D0001B78002B05D17B7B013B3A681344DD224A
:1018E0001A707B7B5A1C7A731A463B681344CC22CD
:1018F0001A707B7B18461837BD4680BDB3040010B4
:10190000D3040010D5040010D7040010D90400102F
:10191000E0040010DB040010DC040010DA04001006
:10192000DE04001080B584B000AF78600B46FB7019
:10193000FB78042B40F29F807B681B78AA2B40F039
:101940009C807B6801331B78BB2B40F096807B68C2
:101950009B787B737B68DB783B730023FB730023EE
:10196000BB7309E0BB7B7A6813441A78FB7B534056
:10197000FB73BB7B0133BB733B7BDA1CBB7B9A42A3
:10198000F0DA3B7B04331A467B6813441B78FA7BFE
:101990009A4274D17B680433BB607B7B013B0B2B89
:1019A00067D801A252F823F0D9191008E7191008D6
:1019B000731A1008F5191008031A1008111A1008E4
:1019C0001F1A10083B1A1008491A1008571A100855
:1019D000651A10082D1A10083B7B1A46B9682A4868
:1019E0000DF042FC46E03B7B1A46B96827480DF0F3
:1019F0003BFC3FE03B7B1A46B96825480DF034FCC0
:101A000038E03B7B1A46B96822480DF02DFC31E0E6
:101A10003B7B1A46B96820480DF026FC2AE03B7B48
:101A20001A46B9681D480DF01FFC23E03B7B1A469F
:101A3000B9681B480DF018FC1CE03B7B1A46B968DE
:101A400018480DF011FC15E03B7B1A46B9681648A2
:101A50000DF00AFC0EE03B7B1A46B96813480DF006
:101A600003FC07E03B7B1A46B96811480DF0FCFB0C
:101A700000E000BF04E000BF02E000BF00E000BFE4
:101A80001037BD4680BD00BFB0040010B104001087
:101A9000D3040010D5040010D7040010D90400109E
:101AA000DA040010E0040010DB040010DC04001075
:101AB000DE04001080B582B000AF7860FFF712FD41
:101AC0004FF47A600AF00DF900BFF7E780B582B0F5
:101AD00000AF7860FFF794FDFCE780B582B000AFFF
:101AE0007860FEF7C9FE4FF4FA500AF0FAF800BF2A
:101AF000F7E7000080B582B000AF6B4BD3F8E03061
:101B0000694A43F00073C2F8E030674BD3F8E03025
:101B100003F000737B607B68012003F00DFF03F08E
:101B200097FF01220221002003F018FF5F4B1B6882
:101B30001B0903F00F03072B08D15D4BD3F80431C9
:101B40005B4A43F00103C2F8043107E0584BD3F875
:101B50001431574A43F00103C2F8143100F084FDF8
:101B600000F070FA00F088FA00F04CFA00F0C6F8C5
:101B700000F088F900F0FAF9FFF750F8FFF79EFB44
:101B80004C4B00225A704B4B00229A7020220021AD
:101B900049480DF0A9FA474BDD2283F82320454B35
:101BA000012283F82420434B0C2283F82520414B4B
:101BB0000B2283F826203F4B002283F827203D4B41
:101BC000002283F828203B4B142283F82A20394B2B
:101BD000142283F82920374B052283F83020354B17
:101BE000632283F82C20334B632283F82D20314B62
:101BF000DD2283F82B202F4B012283F82E202D4B42
:101C0000022283F82F202D4806F00EF82C4806F00B
:101C10000BF80021294806F041F90021274807F078
:101C2000D5FA0421254806F039F90421234807F0A4
:101C3000CDFA0821214806F031F908211F4807F0A4
:101C4000C5FA09F05DFF1F480AF093F803461E4AE3
:101C500013601D4B1B68002B01D100F075FA1B4A65
:101C600000211B4809F0ABFF03461A4A13601A4AC9
:101C700000211A4809F0A3FF0346194A1360194AC4
:101C80000021194809F09BFF0346184A1360184ABF
:101C90000021184809F093FF0346174A136009F022
:101CA00053FF00BFFDE700BF0044025800ED00E015
:101CB00000640258B0040010B3040010E4040010E3
:101CC0003005001038FE100898060010A8FD100816
:101CD0003921100888060010CCFD1008B51A10082C
:101CE0008C060010F0FD1008CD1A100890060010A8
:101CF00014FE1008DB1A10089406001080B59AB084
:101D000000AF07F1580300221A605A609A60DA6047
:101D100007F14C0300221A605A609A6007F1300301
:101D200000221A605A609A60DA601A615A619A61F8
:101D30003B1D2C22002118460DF0D6F94F4B504A7E
:101D40001A604E4B00225A604C4B20229A604B4B3B
:101D500047F22F52DA60494B00221A61474B0022AA
:101D60005A61464B80229A61444805F005FF0346BC
:101D7000002B01D000F0E8F94FF48053BB6507F168
:101D8000580319463D4806F0C3FC0346002B01D01A
:101D900000F0DAF9394806F020F80346002B01D0AC
:101DA00000F0D2F90023FB6400233B6500237B6530
:101DB00007F14C031946314807F028FB0346002B76
:101DC00001D000F0C1F960233B6300237B63002353
:101DD000BB630823FB6300233B6400237B64002375
:101DE000BB6407F1300300221946244806F07CFB4F
:101DF0000346002B01D000F0A7F907F130030422BD
:101E000019461E4806F070FB0346002B01D000F077
:101E10009BF907F1300308221946184806F064FBC5
:101E20000346002B01D000F08FF900237B600023D4
:101E3000BB600023FB6000233B6100237B614FF408
:101E40000053BB610023FB6100233B624FF0007332
:101E50007B620023BB620023FB623B1D19460748DF
:101E600007F062FB0346002B01D000F06DF9034838
:101E700000F0CEF900BF6837BD4680BDE404001015
:101E80000000014080B58EB000AF07F128030022AA
:101E90001A605A609A60DA6007F11C0300221A6027
:101EA0005A609A603B4600221A605A609A60DA6073
:101EB0001A615A619A612B4B2B4A1A60294BEF2207
:101EC0005A60284B00229A60264B42F20F72DA6069
:101ED000244B00221A61234B00229A61214805F00D
:101EE0004BFE0346002B01D000F02EF94FF4805337
:101EF000BB6207F1280319461A4806F009FC03469D
:101F0000002B01D000F020F9164805F005FF03462C
:101F1000002B01D000F018F90023FB6100237B6245
:101F200007F11C0319460F4807F070FA0346002B0F
:101F300001D000F009F900233B6000237B600023FF
:101F4000BB6000233B613B4600221946054806F072
:101F500051FA0346002B01D000F0F6F800BF3837E5
:101F6000BD4680BD300500100008004080B500AFC0
:101F7000224B234A1A60214B4FF4E1325A601F4B27
:101F800000229A601D4B0022DA601C4B00221A616D
:101F90001A4B0C225A61194B00229A61174B0022EE
:101FA000DA61164B00221A62144B00225A62134B5C
:101FB00000229A62114807F078FB0346002B01D0FB
:101FC00000F0C2F800210D4809F036FB0346002B53
:101FD00001D000F0B9F80021084809F06BFB034676
:101FE000002B01D000F0B0F8044809F0ECFA0346E9
:101FF000002B01D000F0A8F800BF80BD7C050010C8
:102000000010014080B582B000AF0D4BD3F8D8303E
:102010000B4A43F00103C2F8D830094BD3F8D8304B
:1020200003F001037B607B68002205210C2000F097
:1020300051FC0C2000F068FC00BF0837BD4680BD95
:102040000044025880B483B000AF0A4BD3F8D430B8
:10205000084A43F00103C2F8D430064BD3F8D43019
:1020600003F001037B607B6800BF0C37BD465DF861
:10207000047B70470044025880B58AB000AF07F176
:10208000140300221A605A609A60DA601A61284BC1
:10209000D3F8E030264A43F00103C2F8E030244B85
:1020A000D3F8E03003F001033B613B69204BD3F8E8
:1020B000E0301F4A43F48063C2F8E0301C4BD3F891
:1020C000E03003F48063FB60FB68194BD3F8E03029
:1020D000174A43F40073C2F8E030154BD3F8E030F0
:1020E00003F40073BB60BB68114BD3F8E030104AB7
:1020F00043F00203C2F8E0300D4BD3F8E03003F0B8
:1021000002037B607B684FF4C0537B610223BB6199
:102110000023FB6100233B6206237B6207F114036B
:102120001946044803F058FA00BF2837BD4680BD61
:10213000004402580000025880B582B000AF7860B9
:10214000012009F0CEFDFBE780B400AF72B600BFFE
:1021500000BFFDE780B582B000AF0C4BD3F8F43080
:102160000A4A43F00203C2F8F430084BD3F8F430C3
:1021700003F002037B607B6800220F216FF00100F7
:1021800000F0A8FB00BF0837BD4680BD00440258E0
:1021900080B584B000AF78607B681B68194A9342B1
:1021A0000FD1194BD3F8F030174A43F00103C2F8AE
:1021B000F030154BD3F8F03003F00103FB60FB68FF
:1021C0001BE07B681B68114A934216D10E4BD3F873
:1021D000E8300D4A43F00403C2F8E8300A4BD3F864
:1021E000E83003F00403BB60BB68002205211E2019
:1021F00000F070FB1E2000F087FB00BF1037BD46CB
:1022000080BD00BF000001400044025800080040AB
:1022100080B58AB000AF786007F1140300221A601D
:102220005A609A60DA601A617B681B68224A93429E
:102230003ED1224BD3F8E030204A43F48063C2F809
:10224000E0301E4BD3F8E03003F480633B613B6920
:102250001A4BD3F8E030194A43F40073C2F8E03067
:10226000164BD3F8E03003F40073FB60FB680323E4
:102270007B610223BB610023FB6100233B620123DE
:102280007B6207F1140319460D4803F0A5F94FF4DA
:1022900070637B610223BB610023FB6100233B620F
:1022A00001237B6207F114031946064803F094F9F1
:1022B00000BF2837BD4680BD0000014000440258E1
:1022C000002802580024025880B5BCB000AF7860E6
:1022D00007F1DC0300221A605A609A60DA601A6122
:1022E00007F11003C822002118460CF0FDFE7B68A0
:1022F0001B68424A93427DD14FF001024FF0000328
:10230000C7E904230023C7F8903007F110031846EB
:1023100003F0C6FD0346002B01D0FFF715FF384B35
:10232000D3F8F030364A43F01003C2F8F030344BA3
:10233000D3F8F03003F01003FB60FB68304BD3F8A8
:10234000E0302F4A43F00203C2F8E0302C4BD3F8C0
:10235000E03003F00203BB60BB684FF44043C7F8B2
:10236000DC300223C7F8E0300023C7F8E430002354
:10237000C7F8E8300423C7F8EC3007F1DC0319464E
:10238000204803F029F9204B204A1A601E4B2922CD
:102390005A601D4B00229A601B4B0022DA601A4BD8
:1023A0004FF480621A61184B00225A61164B0022CA
:1023B0009A61154B4FF48072DA61134B00221A6256
:1023C000114B00225A62104800F0C0FA0346002B5D
:1023D00001D0FFF7B9FE7B680B4AC3F880200A4A98
:1023E0007B68936300220521252000F073FA2520E5
:1023F00000F08AFA00BFF037BD4680BD00100140F2
:102400000044025800040258100600102800024040
:1024100080B590B000AF78607B680F2B27D8002282
:102420007968322000F056FA322000F06DFA294A1D
:102430007B681360284BD3F8E830274A43F0080341
:10244000C2F8E830244BD3F8E83003F00803FB600F
:10245000FB6807F1100207F114031146184603F058
:10246000DDFCBB6ABB63BB6B002B06D101E0012323
:102470002BE003F0A7FCF86304E003F0A3FC0346A1
:102480005B00FB63FB6B154AA2FB03239B0C013B28
:102490007B63134B134A1A60114B40F2E732DA6048
:1024A0000F4A7B6B53600E4B00221A610C4B0022CB
:1024B0009A600B4805F060FB0346002B04D10848E6
:1024C00005F0B2FB034600E0012318464037BD4645
:1024D00080BD00BF2C0100100044025883DE1B4366
:1024E0009C060010000C004080B400AF00BFFDE768
:1024F00080B400AF00BFFDE780B400AF00BFFDE7D0
:1025000080B400AF00BFFDE780B400AF00BFFDE7BF
:1025100080B400AF00BFBD465DF8047B704700008B
:1025200080B500AF024801F039FD00BF80BD00BF9B
:102530001006001080B500AF024805F053FE00BF42
:1025400080BD00BF3005001080B500AF024807F025
:1025500097FA00BF80BD00BF7C05001080B500AFBA
:10256000024805F03FFE00BF80BD00BF9C06001082
:1025700080B586B000AF7860144A154BD31A7B61E2
:102580007B693B61134B1B68002B02D1114B124A34
:102590001A60104B1A687B6813443A699A4207D252
:1025A0000CF036FE03460C221A604FF0FF3309E0B0
:1025B000084B1B68FB60074B1A687B681344054A8D
:1025C0001360FB6818461837BD4680BD00800410B4
:1025D00000100000E806001020520010DFF834D090
:1025E00000F026F80C480D490D4A002302E0D458AB
:1025F000C4500433C4188C42F9D30A4A0A4C00234D
:1026000001E013600432A242FBD30CF007FEFFF797
:1026100071FA70470080041000000010880100105B
:10262000CCFE10088801001020520010FEE70000C8
:1026300080B400AF0B4BD3F888300A4A43F47003E0
:10264000C2F88830074B1B69064A43F01003136138
:10265000044B4FF001629A6000BFBD465DF8047BF9
:10266000704700BF00ED00E080B582B000AF284B9E
:10267000D3F8D830264A43F48043C2F8D830244BEC
:10268000D3F8D83003F480433B603B68214B1B6890
:1026900023F47F2323F470631E4A43F40143136041
:1026A0001C4B1B681B4A43F001031360032000F01E
:1026B00006F903F0DBF90246154B9B691B0A03F090
:1026C0000F031549CB5C03F01F0322FA03F37B6071
:1026D0000F4B9B6903F00F030F4AD35C03F01F03FA
:1026E0007A6822FA03F30D4A13600C4B1B680C4AFC
:1026F00013600F20FFF78CFE0346002B01D001234F
:1027000002E0FFF727FD002318460837BD4680BDCD
:10271000004402580044024048FE100828010010FE
:102720002401001080B400AF064B1B781A46064BFC
:102730001B681344044A136000BFBD465DF8047B68
:10274000704700BF30010010EC06001080B400AFED
:10275000034B1B681846BD465DF8047B704700BFFD
:10276000EC06001080B485B000AF78607B6803F0A1
:102770000703FB600C4BDB68BB60BA684FF6FF03D6
:102780001340BB60FB681A02BB68134343F0BF638E
:1027900043F40033BB60044ABB68D36000BF143706
:1027A000BD465DF8047B704700ED00E080B400AFEB
:1027B000044BDB681B0A03F007031846BD465DF8AF
:1027C000047B704700ED00E080B483B000AF0346A7
:1027D000FB80B7F90630002B0BDBFB8803F01F02F0
:1027E0000749B7F906305B09012000FA02F241F807
:1027F000232000BF0C37BD465DF8047B704700BF47
:1028000000E100E080B483B000AF03463960FB8094
:10281000B7F90630002B0ADB3B68DAB20C49B7F98E
:1028200006301201D2B20B4483F800230AE03B6861
:10283000DAB20849FB8803F00F03043B1201D2B25D
:102840000B441A7600BF0C37BD465DF8047B704719
:1028500000E100E000ED00E080B489B000AFF86076
:10286000B9607A60FB6803F00703FB61FB69C3F1A1
:102870000703042B28BF0423BB61FB690433062B29
:1028800002D9FB69033B00E000237B614FF0FF327C
:10289000BB6902FA03F3DA43BB681A407B699A40CA
:1028A0004FF0FF317B6901FA03F3D9437B680B409A
:1028B000134318462437BD465DF8047B704780B546
:1028C00082B000AF78607868FFF74CFF00BF083730
:1028D000BD4680BD80B586B000AF0346B9607A6062
:1028E000FB81FFF763FF78617A68B9687869FFF761
:1028F000B3FF0246B7F90E3011461846FFF782FFC4
:1029000000BF1837BD4680BD80B582B000AF03461A
:10291000FB80B7F906301846FFF756FF00BF0837AF
:10292000BD4680BD80B400AF074B1B681B0903F098
:102930000F03072B01D1032300E001231846BD46F6
:102940005DF8047B704700BF00ED00E080B586B005
:1029500000AF7860FFF7FAFE38617B68002B01D189
:10296000012314E37B681B68664A93424AD07B6864
:102970001B68654A934245D07B681B68634A934253
:1029800040D07B681B68624A93423BD07B681B68DF
:10299000604A934236D07B681B685F4A934231D0CD
:1029A0007B681B685D4A93422CD07B681B685C4A3D
:1029B000934227D07B681B685A4A934222D07B6897
:1029C0001B68594A93421DD07B681B68574A934243
:1029D00018D07B681B68564A934213D07B681B68EB
:1029E000544A93420ED07B681B68534A934209D0E5
:1029F0007B681B68514A934204D07B681B68504A2D
:102A0000934201D1012300E00023002B00F03B8121
:102A10007B68022283F835207B68002283F834200B
:102A20007B681B68374A93424AD07B681B68364AEA
:102A3000934245D07B681B68344A934240D07B6800
:102A40001B68334A93423BD07B681B68314A9342F0
:102A500036D07B681B68304A934231D07B681B6854
:102A60002E4A93422CD07B681B682D4A934227D074
:102A70007B681B682B4A934222D07B681B682A4ADA
:102A800093421DD07B681B68284A934218D07B680C
:102A90001B68274A934213D07B681B68254A9342E0
:102AA0000ED07B681B68244A934209D07B681B6860
:102AB000224A934204D07B681B68214A934208D182
:102AC0007B681B681A687B681B6822F001021A6029
:102AD00007E07B681B681A687B681B6822F00102AC
:102AE0001A602FE0FFF732FE02463B69D31A052B2E
:102AF00028D97B6820225A657B68032283F8352019
:102B0000012344E21000024028000240400002403D
:102B1000580002407000024088000240A0000240BD
:102B2000B800024010040240280402404004024061
:102B3000580402407004024088040240A00402408D
:102B4000B80402407B681B681B6803F00103002B7C
:102B5000C8D17B681B681B687B617A69844B134012
:102B60007B617B689A687B68DB681A437B681B69BA
:102B70001A437B685B691A437B689B691A437B68CD
:102B8000DB691A437B681B6A13437A6913437B61D1
:102B90007B685B6A042B07D17B68DA6A7B681B6BF6
:102BA00013437A6913437B61724B1B681B0C1B0434
:102BB000B3F1005F28D37B685B68282B03D97B685F
:102BC0005B682E2B17D97B685B683E2B03D97B682B
:102BD0005B68422B0FD97B685B68462B03D97B6807
:102BE0005B68482B07D97B685B684E2B05D97B68EF
:102BF0005B68522B01D8012300E00023002B03D097
:102C00007B6943F480137B617B681B687A691A6077
:102C10007B681B685B697B617B6923F007037B61D1
:102C20007B685B6A7A6913437B617B685B6A042B10
:102C300017D17B689B6A7A6913437B617B68DB6A87
:102C4000002B0ED0786802F03DFB0346002B08D025
:102C50007B6840225A657B68012283F83520012376
:102C600095E17B681B687A695A61786802F078FAA6
:102C70000346BB607B68DB6D03F01F033F229A4075
:102C8000BB689A60CBE07B681B683B4A934222D0CA
:102C90007B681B68394A93421DD07B681B68384AA1
:102CA000934218D07B681B68364A934213D07B68E6
:102CB0001B68354A93420ED07B681B68334A9342A7
:102CC00009D07B681B68324A934204D07B681B683A
:102CD000304A934201D1012300E00023002B00F091
:102CE00095807B681B68244A934221D07B681B68CF
:102CF000224A93421CD07B681B68214A934217D01A
:102D00007B681B681F4A934212D07B681B681E4A6F
:102D100093420DD07B681B681C4A934208D07B68A5
:102D20001B681B4A934203D07B681B68194A934275
:102D30007B68022283F835207B68002283F83420E8
:102D40007B681B681B687B617B6923F4FF3323F47A
:102D5000F8737B617B689B68402B1DD07B689B6808
:102D6000802B02D14FF4804317E0002315E000BF11
:102D70003F8010FE0010005C085402581C5402589A
:102D80003054025844540258585402586C54025853
:102D9000805402589454025810237A68D268D2089A
:102DA0001A437B681B69DB081A437B685B69DB0895
:102DB0001A437B689B69DB081A437B68DB69DB0885
:102DC0001A437B681B6A1B0913437A6913437B61AF
:102DD0007B681B687A691A607B681B681A466E4BB1
:102DE00013446E4AA2FB03231B099A007B68DA6531
:102DF000786802F0B5F90346FB607B68DB6D03F091
:102E00001F0301229A40FB685A6008E07B68402259
:102E10005A657B68032283F835200123B7E07B687D
:102E20001B685F4A934272D07B681B685D4A93427D
:102E30006DD07B681B685C4A934268D07B681B68D6
:102E40005A4A934263D07B681B68594A93425ED0CA
:102E50007B681B68574A934259D07B681B68564A67
:102E6000934254D07B681B68544A93424FD07B688E
:102E70001B68534A93424AD07B681B68514A93426D
:102E800045D07B681B68504A934240D07B681B68E2
:102E90004E4A93423BD07B681B684D4A934236D0E2
:102EA0007B681B684B4A934231D07B681B684A4A57
:102EB00093422CD07B681B68484A934227D07B689A
:102EC0001B68474A934222D07B681B68454A93425D
:102ED0001DD07B681B68444A934218D07B681B68EE
:102EE000424A934213D07B681B68414A93420ED0FA
:102EF0007B681B683F4A934209D07B681B683E4A47
:102F0000934204D07B681B683C4A934201D1012361
:102F100000E00023002B32D0786802F04FFA7B6883
:102F20009B68802B02D17B6800225A607B685A68BC
:102F30007B681B6ED2B21A607B685B6E7A68926E99
:102F40005A607B685B68002B10D07B685B68082B3D
:102F50000CD8786802F0CCFA7B68DB6E00221A602D
:102F60007B681B6F7A68526F5A6008E07B680022AA
:102F7000DA667B6800221A677B6800225A677B68E2
:102F800000225A657B68012283F835200023184609
:102F90001837BD4680BD00BFF8ABFDA7CDCCCCCC6B
:102FA0001000024028000240400002405800024049
:102FB0007000024088000240A0000240B8000240B9
:102FC0001004024028040240400402405804024019
:102FD0007004024088040240A0040240B804024089
:102FE000085402581C540258305402584454025891
:102FF000585402586C540258805402589454025841
:1030000080B586B000AFF860B9607A603B6000239D
:10301000FB75FB68002B01D1012326E2FB6893F8C6
:103020003430012B01D102231FE2FB68012283F817
:103030003420FB6893F83530DBB2012B40F00A8274
:10304000FB68022283F83520FB6800225A65FB6882
:103050001B68684A93424AD0FB681B68664A9342E1
:1030600045D0FB681B68654A934240D0FB681B68EB
:10307000634A93423BD0FB681B68624A934236D056
:10308000FB681B68604A934231D0FB681B685F4A4B
:1030900093422CD0FB681B685D4A934227D0FB68A3
:1030A0001B685C4A934222D0FB681B685A4A9342D1
:1030B0001DD0FB681B68594A934218D0FB681B68F7
:1030C000574A934213D0FB681B68564A93420ED06E
:1030D000FB681B68544A934209D0FB681B68534A3B
:1030E000934204D0FB681B68514A934208D1FB68A5
:1030F0001B681A68FB681B6822F001021A6007E06F
:10310000FB681B681A68FB681B6822F001021A60E2
:103110003B687A68B968F86801F076FEFB681B685E
:10312000344A93424AD0FB681B68334A934245D0E5
:10313000FB681B68314A934240D0FB681B68304AE9
:1031400093423BD0FB681B682E4A934236D0FB6803
:103150001B682D4A934231D0FB681B682B4A93426F
:103160002CD0FB681B682A4A934227D0FB681B6857
:10317000284A934222D0FB681B68274A93421DD0FD
:10318000FB681B68254A934218D0FB681B68244AD9
:10319000934213D0FB681B68224A93420ED0FB680F
:1031A0001B68214A934209D0FB681B681F4A93425F
:1031B00004D0FB681B681E4A934201D1012300E042
:1031C0000023002B36D0FB681B681B6823F01E020F
:1031D000FB681B6842F016021A60FB681B6C002B30
:1031E0003ED0FB681B681A68FB681B6842F0080247
:1031F0001A6035E010000240280002404000024002
:10320000580002407000024088000240A0000240C6
:10321000B80002401004024028040240400402406A
:10322000580402407004024088040240A004024096
:10323000B8040240FB681B681B6823F00E02FB68A1
:103240001B6842F00A021A60FB681B6C002B07D057
:10325000FB681B681A68FB681B6842F004021A606E
:10326000FB681B68834A934272D0FB681B68824AE2
:1032700093426DD0FB681B68804A934268D0FB681C
:103280001B687F4A934263D0FB681B687D4A934268
:103290005ED0FB681B687C4A934259D0FB681B6870
:1032A0007A4A934254D0FB681B68794A93424FD0C4
:1032B000FB681B68774A93424AD0FB681B68764AD2
:1032C000934245D0FB681B68744A934240D0FB6828
:1032D0001B68734A93423BD0FB681B68714A934258
:1032E00036D0FB681B68704A934231D0FB681B687C
:1032F0006E4A93422CD0FB681B686D4A934227D0DC
:10330000FB681B686B4A934222D0FB681B686A4AC1
:1033100093421DD0FB681B68684A934218D0FB6833
:103320001B68674A934213D0FB681B68654A934247
:103330000ED0FB681B68644A934209D0FB681B6887
:10334000624A934204D0FB681B68614A934201D1F0
:10335000012300E00023002B1AD0FB681B6E1B68C2
:1033600003F48033002B07D0FB681B6E1A68FB68E0
:103370001B6E42F480721A60FB68DB6E002B07D074
:10338000FB68DB6E1A68FB68DB6E42F480721A60C1
:10339000FB681B68374A93424AD0FB681B68364A71
:1033A000934245D0FB681B68344A934240D0FB6887
:1033B0001B68334A93423BD0FB681B68314A9342F7
:1033C00036D0FB681B68304A934231D0FB681B68DB
:1033D0002E4A93422CD0FB681B682D4A934227D07B
:1033E000FB681B682B4A934222D0FB681B682A4A61
:1033F00093421DD0FB681B68284A934218D0FB6893
:103400001B68274A934213D0FB681B68254A9342E6
:103410000ED0FB681B68244A934209D0FB681B68E6
:10342000224A934204D0FB681B68214A934208D188
:10343000FB681B681A68FB681B6842F001021A608F
:1034400012E0FB681B681A68FB681B6842F0010207
:103450001A6009E0FB684FF400625A65FB680022BD
:1034600083F834200123FB75FB7D18461837BD46D1
:1034700080BD00BF10000240280002404000024012
:10348000580002407000024088000240A000024044
:10349000B8000240100402402804024040040240E8
:1034A000580402407004024088040240A004024014
:1034B000B8040240085402581C54025830540258B0
:1034C00044540258585402586C54025880540258BC
:1034D0009454025880B586B000AF7860FFF736F993
:1034E00038617B68002B01D10123DCE27B6893F813
:1034F0003530DBB2022B08D07B6880225A657B68AE
:10350000002283F834200123CDE27B681B68764AD1
:1035100093424AD07B681B68744A934245D07B68CB
:103520001B68734A934240D07B681B68714A934280
:103530003BD07B681B68704A934236D07B681B681F
:103540006E4A934231D07B681B686D4A93422CD0FF
:103550007B681B686B4A934227D07B681B686A4A6A
:10356000934222D07B681B68684A93421DD07B68D7
:103570001B68674A934218D07B681B68654A934270
:1035800013D07B681B68644A93420ED07B681B682B
:10359000624A934209D07B681B68614A934204D017
:1035A0007B681B685F4A934201D1012300E000233E
:1035B000002B13D07B681B681A687B681B6822F09D
:1035C0001E021A607B681B685A697B681B6822F0C0
:1035D00080025A617B681B687B610AE07B681B681C
:1035E0001A687B681B6822F00E021A607B681B68F1
:1035F0007B617B681B683C4A934272D07B681B6886
:103600003A4A93426DD07B681B68394A934268D02E
:103610007B681B68374A934263D07B681B68364AD5
:1036200093425ED07B681B68344A934259D07B68D2
:103630001B68334A934254D07B681B68314A9342DB
:103640004FD07B681B68304A93424AD07B681B6826
:103650002E4A934245D07B681B682D4A934240D046
:103660007B681B682B4A93423BD07B681B682A4AC5
:10367000934236D07B681B68284A934231D07B68DE
:103680001B68274A93422CD07B681B68254A9342CB
:1036900027D07B681B68244A934222D07B681B6832
:1036A000224A93421DD07B681B68214A934218D05E
:1036B0007B681B681F4A934213D07B681B681E4AB5
:1036C00093420ED07B681B681C4A934209D07B68EA
:1036D0001B681B4A934204D07B681B68194A9342BB
:1036E00032D1012331E000BF100002402800024027
:1036F0004000024058000240700002408800024032
:10370000A0000240B8000240100402402804024019
:103710004004024058040240700402408804024001
:10372000A0040240B8040240085402581C54025835
:103730003054025844540258585402586C54025899
:1037400080540258945402580023002B07D07B6801
:103750001B6E1A687B681B6E22F480721A607B688D
:103760001B686D4A93424AD07B681B686B4A934240
:1037700045D07B681B686A4A934240D07B681B68CF
:10378000684A93423BD07B681B68674A934236D0B5
:103790007B681B68654A934231D07B681B68644A2A
:1037A00093422CD07B681B68624A934227D07B6887
:1037B0001B68614A934222D07B681B685F4A934230
:1037C0001DD07B681B685E4A934218D07B681B68DB
:1037D0005C4A934213D07B681B685B4A93420ED0CD
:1037E0007B681B68594A934209D07B681B68584A1A
:1037F000934204D07B681B68564A934208D17B6889
:103800001B681A687B681B6822F001021A6007E0D7
:103810007B681B681A687B681B6822F001021A60CB
:1038200013E0FEF793FF02463B69D31A052B0CD930
:103830007B6820225A657B68032283F835207B68E9
:10384000002283F8342001232DE17B691B6803F0FB
:103850000103002BE5D17B681B682F4A93424AD0B5
:103860007B681B682D4A934245D07B681B682C4AB5
:10387000934240D07B681B682A4A93423BD07B68C6
:103880001B68294A934236D07B681B68274A9342BB
:1038900031D07B681B68264A93422CD07B681B681A
:1038A000244A934227D07B681B68234A934222D044
:1038B0007B681B68214A93421DD07B681B68204AA5
:1038C000934218D07B681B681E4A934213D07B68D2
:1038D0001B681D4A93420ED07B681B681B4A9342AB
:1038E00009D07B681B681A4A934204D07B681B6826
:1038F000184A934201D1012300E00023002B2BD072
:103900007B689B6DBB607B68DB6D03F01F033F2210
:103910009A40BB689A602AE01000024028000240EA
:1039200040000240580002407000024088000240FF
:10393000A0000240B80002401004024028040240E7
:1039400040040240580402407004024088040240CF
:10395000A0040240B80402407B689B6DFB607B685A
:10396000DB6D03F01F0301229A40FB685A607B68FD
:103970001B684F4A934272D07B681B684D4A934242
:103980006DD07B681B684C4A934268D07B681B688B
:103990004A4A934263D07B681B68494A93425ED08F
:1039A0007B681B68474A934259D07B681B68464A2C
:1039B000934254D07B681B68444A93424FD07B6843
:1039C0001B68434A93424AD07B681B68414A934232
:1039D00045D07B681B68404A934240D07B681B6897
:1039E0003E4A93423BD07B681B683D4A934236D0A7
:1039F0007B681B683B4A934231D07B681B683A4A1C
:103A000093422CD07B681B68384A934227D07B684E
:103A10001B68374A934222D07B681B68354A934221
:103A20001DD07B681B68344A934218D07B681B68A2
:103A3000324A934213D07B681B68314A93420ED0BE
:103A40007B681B682F4A934209D07B681B682E4A0B
:103A5000934204D07B681B682C4A934201D1012316
:103A600000E00023002B15D07B685B6E7A68926EB5
:103A70005A607B68DB6E002B0CD07B68DB6E1A68AB
:103A80007B68DB6E22F480721A607B681B6F7A6839
:103A9000526F5A607B68012283F835207B680022D0
:103AA00083F83420002318461837BD4680BD00BF78
:103AB000100002402800024040000240580002402E
:103AC0007000024088000240A0000240B80002409E
:103AD00010040240280402404004024058040240FE
:103AE0007004024088040240A0040240B80402406E
:103AF000085402581C540258305402584454025876
:103B0000585402586C540258805402589454025825
:103B100080B584B000AF78607B68002B01D10123B1
:103B200037E27B6893F83530DBB2022B04D07B6838
:103B300080225A6501232CE27B681B685C4A934211
:103B40004AD07B681B685B4A934245D07B681B6800
:103B5000594A934240D07B681B68584A93423BD0F5
:103B60007B681B68564A934236D07B681B68554A6F
:103B7000934231D07B681B68534A93422CD07B68B8
:103B80001B68524A934227D07B681B68504A934275
:103B900022D07B681B684F4A93421DD07B681B680C
:103BA0004D4A934218D07B681B684C4A934213D00D
:103BB0007B681B684A4A93420ED07B681B68494A5F
:103BC000934209D07B681B68474A934204D07B68C4
:103BD0001B68464A934201D1012300E00023002BD9
:103BE00000F086807B68042283F835207B681B68A0
:103BF0002F4A93424AD07B681B682E4A934245D095
:103C00007B681B682C4A934240D07B681B682B4A18
:103C100093423BD07B681B68294A934236D07B682D
:103C20001B68284A934231D07B681B68264A93421E
:103C30002CD07B681B68254A934227D07B681B6881
:103C4000234A934222D07B681B68224A93421DD0AC
:103C50007B681B68204A934218D07B681B681F4A08
:103C6000934213D07B681B681D4A93420ED07B6839
:103C70001B681C4A934209D07B681B681A4A93420E
:103C800004D07B681B68194A934208D17B681B6883
:103C90001A687B681B6822F001021A6078E17B6871
:103CA0001B681A687B681B6822F001021A606FE1CA
:103CB000100002402800024040000240580002402C
:103CC0007000024088000240A0000240B80002409C
:103CD00010040240280402404004024058040240FC
:103CE0007004024088040240A0040240B80402406C
:103CF0007B681B681A687B681B6822F00E021A60DA
:103D00007B681B686C4A93424AD07B681B686B4A8D
:103D1000934245D07B681B68694A934240D07B68D8
:103D20001B68684A93423BD07B681B68664A934293
:103D300036D07B681B68654A934231D07B681B682C
:103D4000634A93422CD07B681B68624A934227D017
:103D50007B681B68604A934222D07B681B685F4A7D
:103D600093421DD07B681B685D4A934218D07B68E4
:103D70001B685C4A934213D07B681B685A4A934283
:103D80000ED07B681B68594A934209D07B681B6838
:103D9000574A934204D07B681B68564A934208D125
:103DA0007B681B681A687B681B6822F001021A6036
:103DB00007E07B681B681A687B681B6822F00102B9
:103DC0001A607B681B683C4A934272D07B681B6810
:103DD0003A4A93426DD07B681B68394A934268D057
:103DE0007B681B68374A934263D07B681B68364AFE
:103DF00093425ED07B681B68344A934259D07B68FB
:103E00001B68334A934254D07B681B68314A934203
:103E10004FD07B681B68304A93424AD07B681B684E
:103E20002E4A934245D07B681B682D4A934240D06E
:103E30007B681B682B4A93423BD07B681B682A4AED
:103E4000934236D07B681B68284A934231D07B6806
:103E50001B68274A93422CD07B681B68254A9342F3
:103E600027D07B681B68244A934222D07B681B685A
:103E7000224A93421DD07B681B68214A934218D086
:103E80007B681B681F4A934213D07B681B681E4ADD
:103E900093420ED07B681B681C4A934209D07B6812
:103EA0001B681B4A934204D07B681B68194A9342E3
:103EB00032D1012331E000BF10000240280002404F
:103EC000400002405800024070000240880002405A
:103ED000A0000240B8000240100402402804024042
:103EE000400402405804024070040240880402402A
:103EF000A0040240B8040240085402581C5402585E
:103F00003054025844540258585402586C540258C1
:103F100080540258945402580023002B28D07B6808
:103F20001B6E1A687B681B6E22F480721A607B68B5
:103F30009B6DFB607B68DB6D03F01F0301229A40E1
:103F4000FB685A607B685B6E7A68926E5A607B6829
:103F5000DB6E002B0CD07B68DB6E1A687B68DB6E37
:103F600022F480721A607B681B6F7A68526F5A6005
:103F70007B68012283F835207B68002283F8342097
:103F80007B681B6D002B03D07B681B6D786898479E
:103F9000002318461037BD4680BD00BF80B58AB0EB
:103FA00000AF78600023FB60674B1B68674AA2FB89
:103FB00003239B0A7B627B689B6D3B627B689B6DE6
:103FC000FB613B6A1B68BB61FB691B687B617B68AB
:103FD0001B685F4A93424AD07B681B685D4A9342E4
:103FE00045D07B681B685C4A934240D07B681B6865
:103FF0005A4A93423BD07B681B68594A934236D059
:104000007B681B68574A934231D07B681B68564ACD
:1040100093422CD07B681B68544A934227D07B681C
:104020001B68534A934222D07B681B68514A9342D3
:104030001DD07B681B68504A934218D07B681B6870
:104040004E4A934213D07B681B684D4A93420ED070
:104050007B681B684B4A934209D07B681B684A4ABD
:10406000934204D07B681B68484A934201D10123E4
:1040700000E00023002B00F02B847B68DB6D03F055
:104080001F0308229A40BB691340002B00F0A28056
:104090007B681B682E4A93424AD07B681B682D4A76
:1040A000934245D07B681B682B4A934240D07B6883
:1040B0001B682A4A93423BD07B681B68284A93427C
:1040C00036D07B681B68274A934231D07B681B68D7
:1040D000254A93422CD07B681B68244A934227D000
:1040E0007B681B68224A934222D07B681B68214A66
:1040F00093421DD07B681B681F4A934218D07B688F
:104100001B681E4A934213D07B681B681C4A93426B
:104110000ED07B681B681B4A934209D07B681B68E2
:10412000194A934204D07B681B68184A93422FD1E6
:104130007B681B681B6803F00403002B14BF01237A
:104140000023DBB22EE000BF24010010B5814E1B1E
:104150001000024028000240400002405800024087
:104160007000024088000240A0000240B8000240F7
:104170001004024028040240400402405804024057
:104180007004024088040240A0040240B8040240C7
:104190007B681B681B6803F00803002B14BF012316
:1041A0000023DBB2002B15D07B681B681A687B6884
:1041B0001B6822F004021A607B68DB6D03F01F03AA
:1041C00008229A403B6A9A607B685B6D43F001026B
:1041D0007B685A657B68DB6D03F01F03BA6922FABE
:1041E00003F303F00103002B6ED07B681B68694A60
:1041F00093424AD07B681B68674A934245D07B68EC
:104200001B68664A934240D07B681B68644A9342AD
:104210003BD07B681B68634A934236D07B681B683F
:10422000614A934231D07B681B68604A93422CD02C
:104230007B681B685E4A934227D07B681B685D4A97
:10424000934222D07B681B685B4A93421DD07B68F7
:104250001B685A4A934218D07B681B68584A93429D
:1042600013D07B681B68574A93420ED07B681B684B
:10427000554A934209D07B681B68544A934204D044
:104280007B681B68524A93420AD17B681B685B6952
:1042900003F08003002B14BF01230023DBB203E0F3
:1042A0007B681B681B680023002B0DD07B68DB6DCF
:1042B00003F01F0301229A403B6A9A607B685B6DA2
:1042C00043F002027B685A657B68DB6D03F01F03D5
:1042D00004229A40BB691340002B00F08F807B685A
:1042E0001B682C4A93424AD07B681B682A4A934237
:1042F00045D07B681B68294A934240D07B681B6885
:10430000274A93423BD07B681B68264A934236D0AB
:104310007B681B68244A934231D07B681B68234A20
:1043200093422CD07B681B68214A934227D07B683C
:104330001B68204A934222D07B681B681E4A934226
:104340001DD07B681B681D4A934218D07B681B6890
:104350001B4A934213D07B681B681A4A93420ED0C3
:104360007B681B68184A934209D07B681B68174A10
:10437000934204D07B681B68154A93422AD17B681C
:104380001B681B6803F00203002B14BF01230023EA
:10439000DBB223E01000024028000240400002404F
:1043A000580002407000024088000240A000024015
:1043B000B8000240100402402804024040040240B9
:1043C000580402407004024088040240A0040240E5
:1043D000B80402407B681B681B680023002B0DD0CB
:1043E0007B68DB6D03F01F0304229A403B6A9A60EE
:1043F0007B685B6D43F004027B685A657B68DB6D0C
:1044000003F01F0310229A40BB691340002B00F0F9
:10441000A6807B681B68854A93424AD07B681B68EC
:10442000834A934245D07B681B68824A934240D0BE
:104430007B681B68804A93423BD07B681B687F4A3D
:10444000934236D07B681B687D4A934231D07B68AB
:104450001B687C4A93422CD07B681B687A4A934243
:1044600027D07B681B68794A934222D07B681B68FF
:10447000774A93421DD07B681B68764A934218D0D6
:104480007B681B68744A934213D07B681B68734A2D
:1044900093420ED07B681B68714A934209D07B68B7
:1044A0001B68704A934204D07B681B686E4A934233
:1044B0000AD17B681B681B6803F00803002B14BF3C
:1044C00001230023DBB209E07B681B681B6803F053
:1044D0000403002B14BF01230023DBB2002B3ED0CA
:1044E0007B68DB6D03F01F0310229A403B6A9A60E1
:1044F0007B681B681B6803F48023002B18D07B6843
:104500001B681B6803F40023002B08D17B681B6C1D
:10451000002B24D07B681B6C786898471FE07B6871
:104520009B6C002B1BD07B689B6C7868984716E0CF
:104530007B681B681B6803F48073002B07D17B68C2
:104540001B681A687B681B6822F008021A607B6887
:104550001B6C002B03D07B681B6C786898477B68CA
:10456000DB6D03F01F0320229A40BB691340002B30
:1045700000F010817B681B682C4A93424AD07B680C
:104580001B682B4A934245D07B681B68294A93429B
:1045900040D07B681B68284A93423BD07B681B68ED
:1045A000264A934236D07B681B68254A934231D015
:1045B0007B681B68234A93422CD07B681B68224A85
:1045C000934227D07B681B68204A934222D07B68A5
:1045D0001B681F4A93421DD07B681B681D4A93428B
:1045E00018D07B681B681C4A934213D07B681B68F9
:1045F0001A4A93420ED07B681B68194A934209D02D
:104600007B681B68174A934204D07B681B68164A74
:1046100093422BD17B681B681B6803F01003002BAF
:1046200014BF01230023DBB22AE000BF10000240C8
:104630002800024040000240580002407000024042
:1046400088000240A0000240B8000240100402406E
:104650002804024040040240580402407004024012
:1046600088040240A0040240B80402407B681B6832
:104670001B6803F00203002B14BF01230023DBB2ED
:10468000002B00F087807B68DB6D03F01F03202286
:104690009A403B6A9A607B6893F83530DBB2042B12
:1046A00039D17B681B681A687B681B6822F0160288
:1046B0001A607B681B685A697B681B6822F080025D
:1046C0005A617B681B6C002B03D17B689B6C002BB1
:1046D00007D07B681B681A687B681B6822F0080299
:1046E0001A607B68DB6D03F01F033F229A403B6A30
:1046F0009A607B68012283F835207B68002283F86A
:1047000034207B681B6D002B00F04A837B681B6D97
:104710007868984744E37B681B681B6803F4802330
:10472000002B18D07B681B681B6803F40023002B48
:1047300008D17B685B6C002B2CD07B685B6C786845
:10474000984727E07B68DB6B002B23D07B68DB6B13
:10475000786898471EE07B681B681B6803F48073C9
:10476000002B0FD17B681B681A687B681B6822F0DE
:1047700010021A607B68012283F835207B680022D2
:1047800083F834207B68DB6B002B03D07B68DB6B0A
:10479000786898477B685B6D002B00F006837B6828
:1047A0005B6D03F00103002B00F088807B6804221E
:1047B00083F835207B681B687A4A93424AD07B682D
:1047C0001B68794A934245D07B681B68774A9342BD
:1047D00040D07B681B68764A93423BD07B681B685D
:1047E000744A934236D07B681B68734A934231D037
:1047F0007B681B68714A93422CD07B681B68704AA7
:10480000934227D07B681B686E4A934222D07B6814
:104810001B686D4A93421DD07B681B686B4A9342AC
:1048200018D07B681B686A4A934213D07B681B6868
:10483000684A93420ED07B681B68674A934209D04E
:104840007B681B68654A934204D07B681B68644A96
:10485000934208D17B681B681A687B681B6822F04A
:1048600001021A6007E07B681B681A687B681B6896
:1048700022F001021A60FB680133FB607A6A9A42F7
:1048800007D37B681B681B6803F00103002BF2D180
:1048900000E000BF7B681B681B6803F00103002B6E
:1048A00004D07B68032283F8352003E07B68012273
:1048B00083F835207B68002283F834207B68DB6C2A
:1048C000002B00F072827B68DB6C786898476CE2A2
:1048D0007B681B68434A934222D07B681B68424A2C
:1048E00093421DD07B681B68404A934218D07B6876
:1048F0001B683F4A934213D07B681B683D4A934232
:104900000ED07B681B683C4A934209D07B681B68C9
:104910003A4A934204D07B681B68394A934201D1DA
:10492000012300E00023002B00F03F827B681B681E
:104930001B683B617B68DB6D03F01F0304229A4018
:104940007B691340002B00F0CD803B6903F004032A
:10495000002B00F0C7807B68DB6D03F01F0304228F
:104960009A40FB695A603B6903F40043002B49D02D
:104970003B6903F48033002B09D17B689B6C002BCF
:1049800000F010827B689B6C786898470AE27B682D
:104990001B6C002B00F006827B681B6C78689847C4
:1049A00000E200BF10000240280002404000024028
:1049B000580002407000024088000240A0000240FF
:1049C000B8000240100402402804024040040240A3
:1049D000580402407004024088040240A0040240CF
:1049E000B8040240085402581C540258305402586B
:1049F00044540258585402586C5402588054025877
:104A0000945402583B6903F02003002B60D17B686B
:104A10001B687F4A93424AD07B681B687D4A934259
:104A200045D07B681B687C4A934240D07B681B68FA
:104A30007A4A93423BD07B681B68794A934236D0CE
:104A40007B681B68774A934231D07B681B68764A43
:104A500093422CD07B681B68744A934227D07B68B2
:104A60001B68734A934222D07B681B68714A934249
:104A70001DD07B681B68704A934218D07B681B6806
:104A80006E4A934213D07B681B686D4A93420ED0E6
:104A90007B681B686B4A934209D07B681B686A4A33
:104AA000934204D07B681B68684A934208D17B68B4
:104AB0001B681A687B681B6822F008021A6007E00E
:104AC0007B681B681A687B681B6822F004021A6006
:104AD0007B681B6C002B00F065817B681B6C786821
:104AE00098475FE17B68DB6D03F01F0302229A4069
:104AF0007B691340002B00F0C5803B6903F0020383
:104B0000002B00F0BF807B68DB6D03F01F030222E7
:104B10009A40FB695A603B6903F40043002B18D0AC
:104B20003B6903F48033002B09D17B685B6C002B5D
:104B300000F03A817B685B6C7868984734E17B6869
:104B4000DB6B002B00F030817B68DB6B786898476B
:104B50002AE13B6903F02003002B40F089807B6849
:104B60001B682B4A93424AD07B681B68294A9342B0
:104B700045D07B681B68284A934240D07B681B68FD
:104B8000264A93423BD07B681B68254A934236D025
:104B90007B681B68234A934231D07B681B68224A9A
:104BA00093422CD07B681B68204A934227D07B68B5
:104BB0001B681F4A934222D07B681B681D4A9342A0
:104BC0001DD07B681B681C4A934218D07B681B6809
:104BD0001A4A934213D07B681B68194A93420ED03D
:104BE0007B681B68174A934209D07B681B68164A8A
:104BF000934204D07B681B68144A934228D17B6897
:104C00001B681A687B681B6822F014021A6027E090
:104C100010000240280002404000024058000240BC
:104C20007000024088000240A0000240B80002402C
:104C3000100402402804024040040240580402408C
:104C40007004024088040240A0040240B8040240FC
:104C50007B681B681A687B681B6822F00A021A606E
:104C60007B68012283F835207B68002283F834209A
:104C70007B68DB6B002B00F097807B68DB6B7868D0
:104C8000984791E07B68DB6D03F01F0308229A4090
:104C90007B691340002B00F088803B6903F0080318
:104CA000002B00F082807B681B68414A93424AD007
:104CB0007B681B683F4A934245D07B681B683E4A2D
:104CC000934240D07B681B683C4A93423BD07B6850
:104CD0001B683B4A934236D07B681B68394A934233
:104CE00031D07B681B68384A93422CD07B681B68A4
:104CF000364A934227D07B681B68354A934222D0BC
:104D00007B681B68334A93421DD07B681B68324A1C
:104D1000934218D07B681B68304A934213D07B685B
:104D20001B682F4A93420ED07B681B682D4A934222
:104D300009D07B681B682C4A934204D07B681B68AF
:104D40002A4A934208D17B681B681A687B681B68F3
:104D500022F01C021A6007E07B681B681A687B68F7
:104D60001B6822F00E021A607B68DB6D03F01F03E4
:104D700001229A40FB695A607B6801225A657B6870
:104D8000012283F835207B68002283F834207B6879
:104D9000DB6C002B09D07B68DB6C7868984704E0FB
:104DA00000BF02E000BF00E000BF2837BD4680BD65
:104DB000100002402800024040000240580002401B
:104DC0007000024088000240A0000240B80002408B
:104DD00010040240280402404004024058040240EB
:104DE0007004024088040240A0040240B80402405B
:104DF00080B483B000AF78607B685B6D18460C3779
:104E0000BD465DF8047B704780B487B000AFF860A2
:104E1000B9607A603B60FB689B6D7B61FB689B6D52
:104E20003B61FB681B687F4A934272D0FB681B683A
:104E30007D4A93426DD0FB681B687C4A934268D0E0
:104E4000FB681B687A4A934263D0FB681B68794A07
:104E500093425ED0FB681B68774A934259D0FB6847
:104E60001B68764A934254D0FB681B68744A93428D
:104E70004FD0FB681B68734A93424AD0FB681B689B
:104E8000714A934245D0FB681B68704A934240D0F8
:104E9000FB681B686E4A93423BD0FB681B686D4AF7
:104EA000934236D0FB681B686B4A934231D0FB6853
:104EB0001B686A4A93422CD0FB681B68684A93427D
:104EC00027D0FB681B68674A934222D0FB681B68A7
:104ED000654A93421DD0FB681B68644A934218D010
:104EE000FB681B68624A934213D0FB681B68614AE7
:104EF00093420ED0FB681B685F4A934209D0FB685F
:104F00001B685E4A934204D0FB681B685C4A93426C
:104F100001D1012300E00023002B0DD0FB685B6E64
:104F2000FA68926E5A60FB68DB6E002B04D0FB6857
:104F30001B6FFA68526F5A60FB681B68394A9342CC
:104F40004AD0FB681B68384A934245D0FB681B680F
:104F5000364A934240D0FB681B68354A93423BD0A7
:104F6000FB681B68334A934236D0FB681B68324AA1
:104F7000934231D0FB681B68304A93422CD0FB68C7
:104F80001B682F4A934227D0FB681B682D4A934227
:104F900022D0FB681B682C4A93421DD0FB681B681B
:104FA0002A4A934218D0FB681B68294A934213D0BF
:104FB000FB681B68274A93420ED0FB681B68264A91
:104FC000934209D0FB681B68244A934204D0FB68D3
:104FD0001B68234A934201D1012300E00023002BE8
:104FE00059D0FB68DB6D03F01F033F229A407B69B9
:104FF0009A60FB681B681A68FB681B6822F48022B1
:105000001A60FB681B683A685A60FB689B68402B13
:1050100038D1FB681B687A689A60FB681B68BA68BD
:10502000DA6086E0100002402800024040000240A2
:10503000580002407000024088000240A000024078
:10504000B80002401004024028040240400402401C
:10505000580402407004024088040240A004024048
:10506000B8040240085402581C54025830540258E4
:1050700044540258585402586C54025880540258F0
:1050800094540258FB681B68BA689A60FB681B68F6
:105090007A68DA604DE0FB681B68294A934222D0A7
:1050A000FB681B68274A93421DD0FB681B68264A91
:1050B000934218D0FB681B68244A934213D0FB68C4
:1050C0001B68234A93420ED0FB681B68214A934217
:1050D00009D0FB681B68204A934204D0FB681B6818
:1050E0001E4A934201D1012300E00023002B20D06F
:1050F000FB68DB6D03F01F0301229A403B695A6095
:10510000FB681B683A685A60FB689B68402B08D1B3
:10511000FB681B687A689A60FB681B68BA68DA608B
:1051200007E0FB681B68BA689A60FB681B687A68CE
:10513000DA6000BF1C37BD465DF8047B704700BFD6
:10514000085402581C54025830540258445402580F
:10515000585402586C5402588054025894540258BF
:1051600080B485B000AF78607B681B68434A934287
:105170004AD07B681B68424A934245D07B681B68D3
:10518000404A934240D07B681B683F4A93423BD0E1
:105190007B681B683D4A934236D07B681B683C4A5B
:1051A000934231D07B681B683A4A93422CD07B688B
:1051B0001B68394A934227D07B681B68374A934261
:1051C00022D07B681B68364A93421DD07B681B68DF
:1051D000344A934218D07B681B68334A934213D0F9
:1051E0007B681B68314A93420ED07B681B68304A4B
:1051F000934209D07B681B682E4A934204D07B6897
:105200001B682D4A934201D1012300E00023002BAB
:1052100026D07B681B68DBB2103B284AA2FB032325
:105220001B09FB60FB6803F00703254AD35C1A46A1
:105230007B68DA65FB68032B09D97B681B6823F45C
:105240007F7323F003031A1D7B689A650EE07B6869
:105250001B6823F47F7323F003037A68936505E0EA
:105260007B681B6823F0FF027B689A657B689B6DF7
:1052700018461437BD465DF8047B704710000240A5
:1052800028000240400002405800024070000240E6
:1052900088000240A0000240B80002401004024012
:1052A00028040240400402405804024070040240B6
:1052B00088040240A0040240B8040240ABAAAAAA93
:1052C00058FE100880B485B000AF78600023FB73EF
:1052D0007B689B69002B20D17B689B6A032B58D885
:1052E00001A252F823F000BFF95210080B53100826
:1052F000F9521008935310087B68DB6A03F080733F
:10530000002B48D00123FB7345E07B68DB6AB3F1D7
:10531000C07F42D10123FB733FE07B689B69B3F5FB
:10532000005F23D17B689B6A032B38D801A252F817
:1053300023F000BF455310084B5310084553100885
:105340005D5310080123FB7330E07B68DB6A03F0D8
:105350008073002B25D00123FB7322E07B68DB6A7E
:10536000B3F1C07F1FD10123FB731CE07B689B6AF4
:10537000022B02D9032B03D018E00123FB7315E0A5
:105380007B68DB6A03F08073002B0ED00123FB7374
:105390000BE000BF0AE000BF08E000BF06E000BF6E
:1053A00004E000BF02E000BF00E000BFFB7B184646
:1053B0001437BD465DF8047B704700BF80B485B0EC
:1053C00000AF78607B681B68BB607B681B683A4AEB
:1053D000934222D07B681B68384A93421DD07B6879
:1053E0001B68374A934218D07B681B68354A934242
:1053F00013D07B681B68344A93420ED07B681B68CD
:10540000324A934209D07B681B68314A934204D0E8
:105410007B681B682F4A934201D1012300E00023DF
:10542000002B1CD07B681B68DBB2083B2A4AA2FB1E
:1054300003231B09FB60FB6803F1B05303F516431C
:105440009B001A467B681A667B68244A5A66FB688A
:1054500003F01F0301229A407B689A6626E07B686E
:105460001B68DBB2103B1E4AA2FB03231B09FB6037
:10547000BB681C4A934206D8BB681B4A934202D9B8
:10548000FB680833FB60FB6803F1805303F50243BC
:105490009B001A467B681A667B68144A5A66FB684A
:1054A00003F01F0301229A407B689A6600BF1437FD
:1054B000BD465DF8047B7047085402581C540258DE
:1054C0003054025844540258585402586C540258EC
:1054D0008054025894540258CDCCCCCC80580258F9
:1054E000ABAAAAAAB80402400F04024080080240F6
:1054F00080B485B000AF78607B685B68DBB2FB602E
:10550000FB68002B4AD0FB68082B47D87B681B68D8
:10551000254A934222D07B681B68244A93421DD0BF
:105520007B681B68224A934218D07B681B68214A1B
:10553000934213D07B681B681F4A93420ED07B684E
:105540001B681E4A934209D07B681B681C4A934221
:1055500004D07B681B681B4A934201D1012300E001
:105560000023002B0AD0FA68174B13449B001A46FD
:105570007B68DA667B68154A1A6709E0FA68144B9B
:1055800013449B001A467B68DA667B68114A1A67E7
:10559000FB68013B01229A407B685A6700BF1437C1
:1055A000BD465DF8047B7047085402581C540258ED
:1055B0003054025844540258585402586C540258FB
:1055C00080540258945402583F960016405902588D
:1055D0003F8200104009024080B489B000AF78607B
:1055E00039600023FB61894B7B6194E13B681A6859
:1055F0000121FB6901FA03F313403B613B69002B76
:1056000000F086813B685B6803F00303012B05D043
:105610003B685B6803F00303022B30D17B689B6817
:10562000BB61FB695B00032202FA03F3DB43BA6947
:105630001340BB613B68DA68FB695B0002FA03F365
:10564000BA691343BB617B68BA699A607B685B681F
:10565000BB610122FB6902FA03F3DB43BA69134021
:10566000BB613B685B681B0903F00102FB6902FA3E
:1056700003F3BA691343BB617B68BA695A603B683C
:105680005B6803F00303032B17D07B68DB68BB6107
:10569000FB695B00032202FA03F3DB43BA691340A0
:1056A000BB613B689A68FB695B0002FA03F3BA6965
:1056B0001343BB617B68BA69DA603B685B6803F0DF
:1056C0000303022B23D1FB69DA087B68083253F805
:1056D0002230BB61FB6903F007039B000F2202FA33
:1056E00003F3DB43BA691340BB613B681A69FB698A
:1056F00003F007039B0002FA03F3BA691343BB618B
:10570000FB69DA087B680832B96943F822107B68C4
:105710001B68BB61FB695B00032202FA03F3DB43F6
:10572000BA691340BB613B685B6803F00302FB6925
:105730005B0002FA03F3BA691343BB617B68BA6981
:105740001A603B685B6803F44033002B00F0E08094
:105750002F4BD3F8F4302E4A43F00203C2F8F43052
:105760002B4BD3F8F43003F00203FB60FB68294AAB
:10577000FB699B08023352F82330BB61FB6903F0DD
:1057800003039B000F2202FA03F3DB43BA691340C1
:10579000BB617B68204A934252D07B681F4A934288
:1057A00031D07B681E4A93422BD07B681D4A9342BE
:1057B00025D07B681C4A93421FD07B681B4A9342CA
:1057C00019D07B681A4A934213D07B68194A9342D6
:1057D0000DD07B68184A934207D07B68174A9342E2
:1057E00001D109232DE00A232BE0082329E0072318
:1057F00027E0062325E0052323E0042321E00323FB
:105800001FE002231DE001231BE000BFC000005881
:1058100000440258000400580000025800040258D6
:1058200000080258000C02580010025800140258D8
:1058300000180258001C0258002002580024025888
:105840000023FA6902F0030292009340BA691343FD
:10585000BB613849FB699B080233BA6941F82320D0
:105860004FF0B0431B68BB613B69DB43BA6913402F
:10587000BB613B685B6803F48013002B03D0BA69FB
:105880003B691343BB614FF0B042BB6913604FF0FB
:10589000B0435B68BB613B69DB43BA691340BB61E2
:1058A0003B685B6803F40013002B03D0BA693B69C3
:1058B0001343BB614FF0B042BB6953607B695B68C7
:1058C000BB613B69DB43BA691340BB613B685B6802
:1058D00003F40033002B03D0BA693B691343BB6167
:1058E0007B69BA695A607B691B68BB613B69DB43B2
:1058F000BA691340BB613B685B6803F48033002BDB
:1059000003D0BA693B691343BB617B69BA691A600A
:10591000FB690133FB613B681A68FB6922FA03F3F8
:10592000002B7FF463AE00BF00BF2437BD465DF897
:10593000047B70470004005880B483B000AF7860E7
:10594000054B1A6804497B6813430B6000BF0C3792
:10595000BD465DF8047B70471065025880B584B081
:1059600000AFF8600B467A60FB72374B1B6823F080
:1059700001023549FB6813430B607B68002B23D180
:10598000FCF7D0FF0346032B58D12F4B1B692E4A3F
:1059900023F0010313612D4B1B692C4A43F00403D0
:1059A0001361BFF34F8F00BFBFF36F8F00BFFB7A50
:1059B000012B01D130BF00E020BF244B1B69234ADB
:1059C00023F0040313613CE07B68012B23D1FCF737
:1059D000A9FF0346012B33D11B4B5B691A4A23F005
:1059E00002035361194B1B69184A43F00403136106
:1059F000BFF34F8F00BFBFF36F8F00BFFB7A012B48
:105A000001D130BF00E020BF104B1B690F4A23F0CB
:105A10000403136115E0FCF785FF0346032B06D151
:105A2000094B1B69084A23F00403136109E0064B84
:105A30005B69054A23F00403536102E000BF00E004
:105A400000BF1037BD4680BD0048025800ED00E0A1
:105A500080B500AFFCF766FF0346032B01D120BFE2
:105A600001E040BF20BF00BF80BD000080B489B00E
:105A700000AFB34B1B6903F03803182B00F25581BC
:105A800001A252F823F000BFED5A10082B5D100858
:105A90002B5D10082B5D10082B5D10082B5D100886
:105AA0002B5D10082B5D1008135B10082B5D100890
:105AB0002B5D10082B5D10082B5D10082B5D100866
:105AC0002B5D10082B5D1008195B10082B5D10086A
:105AD0002B5D10082B5D10082B5D10082B5D100846
